:020000040800F2
:10000000005000208D2C0008A1040008A304000863
:10001000A5040008A7040008A904000800000000C7
:10002000000000000000000000000000AB04000819
:10003000AD04000800000000AF040008B10400088F
:10004000D52C0008D52C0008D52C0008D52C00088C
:10005000D52C0008D52C0008D52C0008D52C00087C
:10006000D52C0008D52C0008D52C0008D52C00086C
:10007000E9040008F904000829050008390500080A
:10008000C9040008D9040008D52C0008D52C0008A4
:10009000D52C0008D52C0008D52C0008D52C00083C
:1000A000D52C00085D250008D52C0008D52C0008AB
:1000B0006D250008D52C0008D52C0008D52C00088B
:1000C000D52C0008D52C0008D52C0008D52C00080C
:1000D000D52C0008D52C00081905000809050008D2
:1000E000D52C0008D52C0008D52C000800000000F5
:1000F0000000000000000000000000000000000000
:0C01000000000000000000005FF808F1A3
:10010C0010B5054C237833B9044B13B10448AFF345
:10011C0000800123237010BD74010020000000003A
:10012C00382D000808B5034B1BB103490348AFF346
:10013C00008008BD0000000078010020382D000868
:10014C0008B500F02FF8002008BDFEE708B54FF405
:10015C00A2720249024802F0DDFD08BD642D0008C0
:10016C0090010020002209E0930003F1006303F5E5
:10017C00FE331968094B43F8221001320C2AF3DDC7
:10018C00002307E0064A52F82320044951F82310B3
:10019C0011600133082BF5DD704700BFD40200203D
:1001AC000000002008B5FFF7D1FFFFF7DBFF08BD0B
:1001BC0000B583B01C4B9A6942F001029A619B69AD
:1001CC0003F001030193019B032000F01FFA0022AE
:1001DC0011466FF00B0000F037FA002211466FF059
:1001EC000A0000F031FA002211466FF0090000F00D
:1001FC002BFA002211466FF0040000F025FA0022C1
:10020C0011466FF0030000F01FFA002211466FF048
:10021C00010000F019FA002211464FF0FF3000F0F7
:10022C0013FA03B05DF804FB001002402DE9F04115
:10023C008CB00368884A93420AD00446874A93429A
:10024C0030D0874A934200F09B800CB0BDE8F0811F
:10025C00844B9A6942F480429A619A6902F4804212
:10026C000192019A9A6942F004029A619B6903F027
:10027C0004030293029B4FF4007308930223099327
:10028C0003230B93784C08A9204600F097FC4FF4FD
:10029C0080630893002309930A9308A9204600F071
:1002AC008DFCD2E76F4EF36943F40033F361F369CD
:1002BC0003F400330393039BB36943F00403B3616A
:1002CC00B36903F004030493049B042308930223EF
:1002DC00099303230B93644F08A9384600F06EFC76
:1002EC0008230893002509950A9508A9384600F0BB
:1002FC0065FC736943F001037361736903F00103D7
:10030C000593059B594E5A4B336010277760B560A7
:10031C004FF08008C6F80C8035617561B561F561E8
:10032C00304600F037FA26637462524E524B3360FB
:10033C007560B560C6F80C8035617561B5614FF4B8
:10034C000053F361304600F025FA666374622A4666
:10035C002946384600F078F9384600F0BBF90122FE
:10036C002946112000F070F9112000F0B3F9012298
:10037C002946262000F068F9262000F0ABF964E746
:10038C00384BDA6942F48022DA61DA6902F48022AD
:10039C000692069A9A6942F010029A619B6903F0E0
:1003AC0010030793079B4FF4806308930223099370
:1003BC0003230B93314E08A9304600F0FFFB4FF49A
:1003CC0000630893002509950A9508A9304600F0AA
:1003DC00F5FB2B4A536823F0300343F010035360B2
:1003EC00284E294B336010237360B5608027F7606B
:1003FC0035617561B561F561304600F0CBF9266366
:10040C007462224E224B33607560B560F7603561C3
:10041C007561B5614FF40053F361304600F0BAF9E1
:10042C00666374622A4629460D2000F00DF90D20F2
:10043C0000F050F92A4629460C2000F005F90C2052
:10044C0000F048F901222946272000F0FDF827206A
:10045C0000F040F9F9E600BF0038014000440040CC
:10046C000048004000100240000801408C030020AE
:10047C00800002401C0300206C0002400010014070
:10048C0000000140C40300201C0002405403002063
:10049C00300002407047FEE7FEE7FEE7FEE77047DC
:1004AC007047704708B500F095F800F05EF9024A05
:1004BC0013680133136008BD1808002008B5024BFF
:1004CC00586B00F043FA08BDF000002008B5024B51
:1004DC00186B00F03BFA08BDF000002008B5024B89
:1004EC00186B00F033FA08BD3001002008B5024B40
:1004FC00586B00F02BFA08BD3001002008B50248FB
:10050C0001F043FF08BD00BF3001002008B50248D0
:10051C0001F03BFF08BD00BFF000002008B5024B06
:10052C00D86A00F013FA08BD2800002008B5024B69
:10053C00186B00F00BFA08BD280000200F4B1A684E
:10054C0042F001021A6059680D4A0A405A601A6852
:10055C0022F0847222F480321A601A6822F480220B
:10056C001A605A6822F4FE025A604FF41F029A6015
:10057C00044B4FF000629A60704700BF00100240BD
:10058C000000FFF800ED00E010B5044601F08AFA17
:10059C00064BA3FB0030800900F0B2F80022214684
:1005AC004FF0FF3000F050F8002010BDD34D62101A
:1005BC0008B5074A136843F010031360032000F0DA
:1005CC0025F80020FFF7E0FFFFF7F2FD002008BD43
:1005DC0000200240024A136801331360704700BFC9
:1005EC00FC030020014B1868704700BFFC0300207F
:1005FC0010B582B00190FFF7F5FF0446FFF7F2FF4C
:10060C00001B019B9842F9D302B010BD10B50446F3
:10061C00C31E042B0FD80A4AD36823F4E0631B04CF
:10062C001B0C240204F4E064234343F0BF6343F443
:10063C000033D36010BDBA210248FFF786FDEAE70C
:10064C0000ED00E0C02E000870B505460C461646BD
:10065C000F2A25D80F2C28D81B4BDB68C3F3022399
:10066C00C3F10702042A28BF0422191D062921D927
:10067C00033B4FF0FF3101FA02F224EA02049C40E2
:10068C0001FA03F326EA03063443002D14DB24019C
:10069C00E4B205F1604505F5614585F8004370BD90
:1006AC00D2210A48FFF751FDD4E7D3210748FFF7C1
:1006BC004CFDD1E70023DCE705F00F052401E4B283
:1006CC00034B5C55EBE700BF00ED00E0C02E0008CB
:1006DC0014ED00E010B5041E08DB04F01F026409E1
:1006EC0001239340044A42F8243010BDE62103480C
:1006FC00FFF72BFDF1E700BF00E100E0C02E000882
:10070C000138B0F1807F0AD2064B5860064AF021BE
:10071C0082F823100020986007221A60704701208D
:10072C00704700BF10E000E000ED00E010B504469B
:10073C00042800D038B9042C0BD0094A136823F0D4
:10074C000403136010BD4FF4DF710648FFF7FDFC86
:10075C00F1E7034A136843F004031360F2E700BFA8
:10076C0010E000E0C02E0008704708B5FFF7FCFF52
:10077C0008BD10B4046863604368102B05D003688F
:10078C0099600368DA6010BC704703689A6003686C
:10079C00D960F8E7002800F0928010B50446036891
:1007AC00484A934215D01432934212D014329342D9
:1007BC000FD0143293420CD01432934209D014321D
:1007CC00934206D01432934203D0B5213E48FFF732
:1007DC00BCFC636823B1102B02D0B3F5804F4BD116
:1007EC00A368402B01D0002B4BD1E368802B01D0A8
:1007FC00002B4BD123692BB1B3F5807F02D0B3F51D
:10080C00007F48D163692BB1B3F5806F02D0B3F58B
:10081C00006F45D1A3690BB1202B46D1E36943B1DD
:10082C00B3F5805F05D0B3F5005F02D0B3F5405F40
:10083C0040D194F821300BB984F82030022384F88D
:10084C00213021680A6822F47F5222F0300263685A
:10085C00A0680343E06803432069034360690343D2
:10086C00A0690343E069034313430B6000206063FA
:10087C00012384F8213010BDB6211348FFF765FC25
:10088C00AEE7B7211048FFF760FCAEE7B8210E4881
:10089C00FFF75BFCAEE7B9210B48FFF756FCB1E75D
:1008AC00BA210948FFF751FCB4E7BB210648FFF712
:1008BC004CFCB3E7BC210448FFF747FCB9E7012027
:1008CC00704700BF08000240F82E0008F8B590F8F9
:1008DC002040012C35D01D4616460F4604460123F8
:1008EC0080F82030022380F821306A1E4FF6FE7308
:1008FC009A4220D82068036823F0010303602B463A
:10090C00324639462046FFF734FF2268136843F01D
:10091C00020313602268136843F004031360226817
:10092C00136843F0080313602268136843F0010353
:10093C0013600020F8BD40F261110348FFF705FC7D
:10094C00D8E70220F6E700BFF82E000810B50446E1
:10095C00984B1A68036898498B4214D014318B4217
:10096C0032D014318B4231D014318B4231D014310E
:10097C008B4231D014318B4202D04FF0006103E036
:10098C004FF4000100E008210A423CD01A6812F032
:10099C00080F38D01A6822F008021A602368864AB9
:1009AC0093421FD01432934245D01432934244D018
:1009BC001432934244D01432934244D014329342B2
:1009CC000DD04FF000620EE08021DDE74FF40061A6
:1009DC00DAE74FF40041D7E74FF40021D4E74FF4A6
:1009EC00000200E00822734B5A60636B43F0010372
:1009FC006363042384F82130002384F82030236BB4
:100A0C000BB1204698476B4B1A6823686A498B4296
:100A1C001FD014318B4241D014318B4240D0143151
:100A2C008B4240D014318B4240D014318B420DD0CC
:100A3C004FF080610EE08022D5E74FF40062D2E7E0
:100A4C004FF40042CFE74FF40022CCE74FF4800183
:100A5C0000E004210A4239D01A6812F0040F35D094
:100A6C001A6812F0200F03D11A6822F004021A60DF
:100A7C002368514A93421FD0143293423ED0143211
:100A8C0093423DD0143293423DD0143293423DD028
:100A9C00143293420DD04FF080620EE04021D9E722
:100AAC004FF48061D6E74FF48041D3E74FF48021B7
:100ABC00D0E74FF4800200E004223E4B5A60112331
:100ACC0084F82130E36A0BB120469847394B1A68F9
:100ADC00236839498B421FD014318B4241D01431D9
:100AEC008B4240D014318B4240D014318B4240D0D9
:100AFC0014318B420DD04FF000710EE04022DCE738
:100B0C004FF48062D9E74FF48042D6E74FF480224D
:100B1C00D3E74FF4001100E002210A423ED01A68DC
:100B2C0012F0020F3AD01A6812F0200F03D11A6893
:100B3C0022F002021A6023681F4A93421FD014321B
:100B4C0093422CD0143293422BD0143293422BD09C
:100B5C00143293422BD0143293420DD04FF00072CA
:100B6C000EE02021D9E74FF40071D6E74FF4005185
:100B7C00D3E74FF40031D0E74FF4001200E002222B
:100B8C000C4B5A60636B6363012384F821300023A0
:100B9C0084F82030A36A0BB12046984710BD202260
:100BAC00EEE74FF40072EBE74FF40052E8E74FF436
:100BBC000032E5E700000240080002402DE9F04356
:100BCC0083B080460F46B54B984213D003F5806333
:100BDC0098420FD003F5806398420BD003F58063E5
:100BEC00984207D003F58063984203D0CF21AC48DC
:100BFC00FFF7ABFA3B882BB37B68012B1ED9112B6B
:100C0C001CD0022B1AD0122B18D0A64A934215D006
:100C1C0002F58012934211D002F5801293420DD04E
:100C2C00A2F5F812934209D002F58012934205D036
:100C3C0002F58012934201D0032B08D14FF000092A
:100C4C004E46DDE0D0219648FFF77FFAD4E7D1215C
:100C5C009348FFF77AFAF1E7002B5ED0012B05D110
:100C6C00FB68013B022B65D8D7F80C90FF2C00F2E7
:100C7C0096804046FF2C00F29580B20003680F214D
:100C8C00914023EA010309FA02F2134303607B68E3
:100C9C0013F0805F00F0B380834B9A6942F001023D
:100CAC009A619B6903F001030193019BB208911CAB
:100CBC007E4B53F8210006F0030399000F238B4061
:100CCC0020EA0300754B984572D003F58063984574
:100CDC0000F0CD8003F58063984500F0CA8003F5E1
:100CEC008063984562D0042363E0714A934214D028
:100CFC000BD9704A934210D002F5803293420CD03B
:100D0C00A2F580129342B1D107E0A2F58012934272
:100D1C0003D002F580329342A8D1BB68022B2DD8A8
:100D2C00BB68002B38D0012B2ED0C8F814504FF0D4
:100D3C0008099BE7E7215A48FFF707FA94E7EE21E9
:100D4C005748FFF702FA8EE0FB68013B022B03D8F1
:100D5C00FB6803F1080989E7F5215148FFF7F5F91C
:100D6C00F6E7FB68013B022B03D8FB6803F10C0987
:100D7C007CE7FC214A48FFF7E8F9F6E740F2091155
:100D8C004748FFF7E2F9CBE7C8F810504FF00809D5
:100D9C006CE74FF0000969E74FF0040966E708F1CA
:100DAC00040067E7A6F10802920067E7032300E05E
:100DBC0000238B40034302323C4941F822307B68CC
:100DCC0013F4803F57D03C4A1368234313607B686D
:100DDC0013F4003F55D0384A5368234353607B6863
:100DEC0013F4801F53D0344A9368234393607B6879
:100DFC0013F4001F62D0304AD3681C43D460013610
:100E0C000F2E61D80125B5403C682C40A542F6D187
:100E1C00224B984513D003F5806398450FD003F50A
:100E2C00806398450BD003F58063984507D003F594
:100E3C008063984503D0DF211948FFF786F97B685A
:100E4C00122B8ED03FF651AF022B3FF47DAF7FF6C5
:100E5C0003AF032B9DD0112B7FF408AFFB68013B34
:100E6C00022B3FF66CAFFB6803F10409FEE601238D
:100E7C009FE702239DE7104A136823EA04031360DB
:100E8C00A5E70D4A536823EA04035360A7E70A4A0F
:100E9C00936823EA04039360A9E700BF00080140AC
:100EAC00302F00080000111000100240000001401B
:100EBC00000021100000311000040140044AD368E6
:100ECC0023EA0404D4609AE703B0BDE8F08300BFC2
:100EDC000004014038B505460C4621B1AB681C42F4
:100EEC0007D1002038BD4FF4E2710348FFF72DF90C
:100EFC00F4E70120F6E700BF302F000870B5064676
:100F0C0015460C4629B1012D09D875B92404346154
:100F1C0070BD4FF4F2710648FFF717F9F3E740F292
:100F2C00E5110348FFF711F9EFE73461F0E700BF73
:100F3C00302F000870470000002844D010B504463C
:100F4C000268234B9A4203D0A6212248FFF7FDF8F2
:100F5C006368062B28D8A368B3F5805F29D2236871
:100F6C00DA6812F0010F03D0DB6813F0020F2CD1FA
:100F7C00637B1BB302236373236845F255521A60DB
:100F8C002268536823F0070361680B43536022689F
:100F9C00936823F47F6323F00F03A1680B439360E2
:100FAC0001236373002010BDA7210A48FFF7CDF879
:100FBC00D1E7A8210748FFF7C8F8D0E723732046EC
:100FCC00FFF7B8FFD6E7012070470120EBE700BF21
:100FDC0000300040682F0008037B012B0FD0022348
:100FEC00437303684CF6CC421A6003684AF6AA2293
:100FFC001A600123437300230373184670470220C1
:10100C00704738B5037B012B1FD0044601230373B3
:10101C0002234373FFF7E6FA05462368DA6812F0F9
:10102C00020F0AD0FFF7DEFA401BB0F57A7FF4D935
:10103C00032060730023237306E04AF6AA221A6089
:10104C00012363730020207338BD0220FCE70000ED
:10105C0030B583B0044688B3236813B113F00F0F77
:10106C0032D0236813F0010F56D063682BB1B3F55F
:10107C00803F02D0B3F5A02F2CD1C64B5B6803F098
:10108C000C03042B31D0C34B5B6803F00C03082B0F
:10109C0026D06368B3F5803F00F08380002B40F0CE
:1010AC00A58003F1804303F504331A6822F48032DF
:1010BC001A601A6822F480221A6077E04FF4877164
:1010CC00B548FFF742F8C7E740F20F11B248FFF7F7
:1010DC003CF8C6E740F21511AF48FFF736F8CCE7FD
:1010EC00AC4B5B6813F4803FD3D04FF4003393FACE
:1010FC00A3F3A84B1A684FF4003393FAA3F3B3FA93
:10110C0083F303F01F0322FA03F313F0010F03D050
:10111C006368002B00F02083236813F0020F00F0AB
:10112C00D3802369012B00F2998063691F2B00F295
:10113C009B80984B5B6813F00C0F00F0A180954BD3
:10114C005B6803F00C03082B00F094802369002BE0
:10115C0000F0F880012292FAA2F3B3FA83F39B0019
:10116C0003F1844303F584031A60FFF73BFA054649
:10117C00022393FAA3F3874B1A68022393FAA3F37F
:10118C00B3FA83F303F01F0322FA03F313F0010FF6
:10119C0040F0C980FFF726FA401B0228E8D903204B
:1011AC00E1E27C4A136843F4803313606368002BDC
:1011BC0036D0FFF717FA05464FF4003393FAA3F332
:1011CC00744B1A684FF4003393FAA3F3B3FA83F316
:1011DC0003F01F0322FA03F313F0010F9CD1FFF766
:1011EC0001FA401B6428E7D90320BCE2B3F5A02F19
:1011FC0009D0684B1A6822F480321A601A6822F4FB
:10120C0080221A60D2E703F18043A3F53C331A68BD
:10121C0042F480221A601A6842F480321A60C5E7E0
:10122C00FFF7E0F905464FF4003393FAA3F3594B5B
:10123C001A684FF4003393FAA3F3B3FA83F303F071
:10124C001F0322FA03F313F0010F3FF465AFFFF70E
:10125C00C9F9401B6428E6D9032084E240F2491105
:10126C004D48FEF772FF60E74FF4A5714A48FEF750
:10127C006CFF5EE7474B5B6813F4803F7FF466AF0F
:10128C00022393FAA3F3434B1A68022393FAA3F3B2
:10129C00B3FA83F303F01F0322FA03F313F0010FE5
:1012AC0004D02369012B01D001205CE2394803688A
:1012BC0023F0F8036169F82292FAA2F2B2FA82F2F0
:1012CC0001FA02F213430360236813F0080F70D085
:1012DC00A369012B64D8A369002B00F09280012232
:1012EC0092FAA2F3B3FA83F32C4941F82320FFF7C7
:1012FC0079F90546022393FAA3F293FAA3F2254A4D
:10130C00526A93FAA3F3B3FA83F303F01F0322FA9E
:10131C0003F313F0010F49D1FFF764F9401B0228C6
:10132C00E8D903201FE21B48036823F0F803616926
:10133C00F82292FAA2F2B2FA82F201FA02F2134302
:10134C000360C1E7012393FAA3F3B3FA83F39B0081
:10135C0003F1844303F5840300221A60FFF742F97A
:10136C000546022393FAA3F30A4B1A68022393FA55
:10137C00A3F3B3FA83F303F01F0322FA03F313F07E
:10138C00010FA1D0FFF72EF9401B0228E9D9032049
:10139C00E9E100BF00100240A02F00088004424287
:1013AC004FF4C571AC48FEF7D0FE94E70120FFF76F
:1013BC001FF9236813F0040F00F0CF80E368012BB2
:1013CC0001D9052B42D1A54BDA6942F08052DA6182
:1013DC00DB6903F080530193019BA14A136843F42A
:1013EC0080731360FFF7FEF805469D4B1B6813F4E2
:1013FC00807F31D1FFF7F6F8401B6428F5D9032024
:10140C00B1E1012393FAA3F3B3FA83F3954A0021D4
:10141C0042F82310FFF7E6F80546022393FAA3F2ED
:10142C0093FAA3F28D4A526A93FAA3F3B3FA83F3B5
:10143C0003F01F0322FA03F313F0010FB9D0FFF7E7
:10144C00D1F8401B0228E8D903208CE140F2B711F7
:10145C008148FEF77AFEB6E7E368012B0DD0C3B9DD
:10146C0003F1804303F504331A6A22F001021A6275
:10147C001A6A22F004021A6204E0784A136A43F0F2
:10148C0001031362E368002B3ED0FFF7ABF805466F
:10149C002BE0052B09D0714B1A6A22F001021A625B
:1014AC001A6A22F004021A62ECE76C4B1A6A42F0D8
:1014BC0004021A621A6A42F001021A62E2E7674BEE
:1014CC001A6A022393FAA3F3B3FA83F303F01F030C
:1014DC0022FA03F313F0010F3FD1FFF783F8401BFF
:1014EC0041F28833984200F23981022393FAA3F235
:1014FC0093FAA3F3B3FA83F35B0943F00203022BD1
:10150C00DDD0564B5A6ADCE7FFF76CF8054615E060
:10151C00524B1A6A022393FAA3F3B3FA83F303F040
:10152C001F0322FA03F313F0010F16D0FFF75AF83A
:10153C00401B41F28833984200F21281022393FA45
:10154C00A3F293FAA3F3B3FA83F35B0943F0020318
:10155C00022BDDD0414B5A6ADCE7E369022B68D8D9
:10156C00E369002B00F0FE803C4A526802F00C024A
:10157C00082A00F0FA80022B40F0C280236A13B1D3
:10158C00B3F5803F5BD1636A4BB3B3F5802F26D0A4
:10159C00B3F5002F23D0B3F5402F20D0B3F5801F27
:1015AC001DD0B3F5A01F1AD0B3F5C01F17D0B3F5DB
:1015BC00E01F14D0B3F5001F11D0B3F5101F0ED0DF
:1015CC00B3F5201F0BD0B3F5301F08D0B3F5401F77
:1015DC0005D0B3F5501F02D0B3F5601F35D14FF0D5
:1015EC00807393FAA3F3B3FA83F39B0003F1844360
:1015FC0003F5840300221A60FEF7F4FF05464FF052
:10160C00007393FAA3F3154B1A684FF0007393FA17
:10161C00A3F3B3FA83F303F01F0322FA03F313F0DB
:10162C00010F21D0FEF7DEFF401B0228E7D9032073
:10163C0099E040F247210848FEF787FD90E74FF408
:10164C0014710548FEF781FD9DE740F251210248D7
:10165C00FEF77BFDC3E700BFA02F0008001002407F
:10166C000070004080044242236AB3F5803F32D0C0
:10167C003F494B6823F47413226A606A0243134394
:10168C004B604FF0807393FAA3F3B3FA83F39B0090
:10169C0003F1844303F5840301221A60FEF7A2FFD1
:1016AC0004464FF0007393FAA3F3314B1A684FF0D2
:1016BC00007393FAA3F3B3FA83F303F01F0322FA34
:1016CC0003F313F0010F19D1FEF78CFF001B022856
:1016DC00E7D9032047E0A36813B1B3F5003F07D166
:1016EC00234A536823F40033A1680B435360BFE7CC
:1016FC0040F267211F48FEF728FDF1E7002032E099
:10170C004FF0807393FAA3F3B3FA83F39B0003F1C6
:10171C00844303F5840300221A60FEF763FF04463A
:10172C004FF0007393FAA3F3114B1A684FF0007348
:10173C0093FAA3F3B3FA83F303F01F0322FA03F330
:10174C0013F0010F06D0FEF74DFF001B0228E7D95E
:10175C00032008E0002006E0012004E0032002E062
:10176C00032000E0002003B030BD0120FBE700BFE8
:10177C0000100240A02F000810B487B01D4C94E854
:10178C000F000DF1180C0CE90F00238AADF8043092
:10179C00194B596801F00C03082B28D101F4701374
:1017AC004FF4701292FAA2F2B2FA82F2D34063446E
:1017BC0013F8100C11F4803F05D1104B03FB00F013
:1017CC0007B010BC70470C4B5B6803F400334FF44C
:1017DC00003292FAA2F2B2FA82F2D340634413F8C6
:1017EC00142C074BB3FBF2F300FB03F0E8E70448BF
:1017FC00E6E700BF502D00080010024000093D0034
:10180C0000127A0070B50D460446C0B1236813F07F
:10181C000F0F1AD0022D1ED89D4B1B6803F0070327
:10182C00AB421ED29A4A136823F007032B43136072
:10183C00136803F00703AB4213D0012070BD4FF4C3
:10184C002F719448FEF781FCE0E740F2BD219148EE
:10185C00FEF77BFCDEE740F2BE218E48FEF775FCFE
:10186C00DAE7236813F0020F18D0A3687BB1802B42
:10187C000DD0902B0BD0A02B09D0B02B07D0C02BA8
:10188C0005D0D02B03D0E02B01D0F02B41D1824AD4
:10189C00536823F0F003A1680B435360236813F0E3
:1018AC00010F00F08A806368022B38D86368012B23
:1018BC003BD0022B4ED0022292FAA2F2764A116849
:1018CC00022292FAA2F2B2FA82F202F01F0221FA7A
:1018DC0002F212F0010F00F0D8806F494A6822F032
:1018EC00030213434B60FEF77DFE06466368012B33
:1018FC0045D0022B52D0684B5B6813F00C0F5CD0B8
:10190C00FEF770FE801B41F288339842F3D9032016
:10191C0094E740F2D7215F48FEF717FCB7E740F297
:10192C00DE215C48FEF711FCC0E74FF4003292FA5E
:10193C00A2F2594A11684FF4003292FAA2F2B2FAAA
:10194C0082F202F01F0221FA02F212F0010FC4D14E
:10195C00012073E74FF0007292FAA2F24E4A11681E
:10196C004FF0007292FAA2F2B2FA82F202F01F0267
:10197C0021FA02F212F0010FAFD101205EE7464BC3
:10198C005B6803F00C03042B17D0FEF72BFE801BB7
:10199C0041F288339842F2D903204FE73E4B5B6803
:1019AC0003F00C03082B08D0FEF71CFE801B41F241
:1019BC0088339842F2D9032040E7354B1B6803F07B
:1019CC000703AB420CD9324A136823F007032B43AD
:1019DC001360136803F00703AB4201D001202DE71D
:1019EC00236813F0040F14D0E3685BB1B3F5806F78
:1019FC0008D0B3F5A06F05D0B3F5C06F02D0B3F526
:101A0C00E06F36D1244A536823F4E063E1680B435A
:101A1C005360236813F0080F15D023695BB1B3F53D
:101A2C00806F08D0B3F5A06F05D0B3F5C06F02D0AE
:101A3C00B3F5E06F23D1184A536823F4605321693E
:101A4C0043EAC1035360FFF797FE134B5B6803F047
:101A5C00F003F02292FAA2F2B2FA82F2D3400F4AC9
:101A6C00D35CD8400E4B18600020FEF78DFD002093
:101A7C00E4E640F232310748FEF767FBC2E740F27A
:101A8C0039310448FEF761FBD5E70120D6E600BFEB
:101A9C0000200240A02F000800100240A82E0008D1
:101AAC0024000020014B1868704700BF2400002060
:101ABC0008B5FFF7F7FF074B5B6803F4E0634FF4DF
:101ACC00E06292FAA2F2B2FA82F2D340024AD35CFA
:101ADC00D84008BD00100240B82E000808B5FFF72A
:101AEC00E1FF074B5B6803F460534FF4605292FACA
:101AFC00A2F2B2FA82F2D340024AD35CD84008BDBB
:101B0C0000100240B82E0008F0B583B004460368FC
:101B1C0013F0130F2CD0236813F0010F5CD0636803
:101B2C0043B1B3F5807F05D0B3F5007F02D0B3F598
:101B3C00407F22D1594BDA6942F08052DA61DB697D
:101B4C0003F080530193019B554A136843F480734F
:101B5C001360FEF747FD0546514B1B6813F4807F5D
:101B6C0010D1FEF73FFD401B6428F5D903205BE044
:101B7C007E214C48FEF7E9FACDE784214948FEF76F
:101B8C00E4FAD7E7454B1B6A13F440731DD0626827
:101B9C0002F440729A4218D04048016A21F440760F
:101BAC004FF4803393FAA3F2B2FA82F23E4D01273E
:101BBC0045F8227093FAA3F3B3FA83F3002245F8A5
:101BCC002320066211F0010F30D1344A136A23F43A
:101BDC00407361680B431362236813F0020F11D03A
:101BEC00A36843B1B3F5804F05D0B3F5004F02D0D5
:101BFC00B3F5404F42D1294A536823F44043A168BE
:101C0C000B435360236813F0100F44D0E368B3F513
:101C1C00800F01D0002B36D1204A536823F4800367
:101C2C00E1680B435360002003B0F0BDFEF7DAFC13
:101C3C00054614E0194B1A6A022393FAA3F3B3FA7C
:101C4C0083F303F01F0322FA03F313F0010FBCD14B
:101C5C00FEF7C8FC401B41F28833984219D8022386
:101C6C0093FAA3F293FAA3F3B3FA83F35B0943F069
:101C7C000203022BDED0094B5A6ADDE7BA21094870
:101C8C00FEF763FAB7E74FF48B710648FEF75DFA7F
:101C9C00C2E70320C8E70020C6E700BF00100240DF
:101CAC0000700040D82F0008000442427047704773
:101CBC0070477047704710B5044603681A6912F0F4
:101CCC00020F11D0DA6812F0020F0DD06FF0020281
:101CDC001A610123037603689B6913F0030F70D01C
:101CEC00FFF7E6FF0023237623681A6912F0040F2E
:101CFC0012D0DA6812F0040F0ED06FF004021A61E1
:101D0C000223237623689B6913F4407F5FD020461F
:101D1C00FFF7CEFF0023237623681A6912F0080F11
:101D2C0012D0DA6812F0080F0ED06FF008021A61A8
:101D3C00042323762368DB6913F0030F4ED020466F
:101D4C00FFF7B6FF0023237623681A6912F0100FF1
:101D5C0012D0DA6812F0100F0ED06FF010021A6168
:101D6C00082323762368DB6913F4407F3DD020469B
:101D7C00FFF79EFF0023237623681A6912F0010FE8
:101D8C0003D0DA6812F0010F36D123681A6912F009
:101D9C00800F03D0DA6812F0800F34D123681A69EF
:101DAC0012F0400F03D0DA6812F0400F32D12368E2
:101DBC001A6912F0200F03D0DA6812F0200F30D11C
:101DCC0010BDFFF774FF2046FFF773FF8AE720462C
:101DDC00FFF76DFF2046FFF76CFF9BE72046FFF7F0
:101DEC0066FF2046FFF765FFACE72046FFF75FFF75
:101DFC002046FFF75EFFBDE76FF001021A61204637
:101E0C00FFF754FFC1E76FF080021A61204600F023
:101E1C0010F8C3E76FF040021A612046FFF74AFF43
:101E2C00C5E76FF020021A61204600F001F8C7E701
:101E3C007047704790F83930DBB2122B01D0322B3F
:101E4C002AD18368B3F5805F16D0036A5A1C0262EC
:101E5C001A7803685A60C38C013B9BB2C384EBB9FC
:101E6C000268D36823F08003D3600268D36843F020
:101E7C004003D36000207047036A1B880268C3F3D9
:101E8C000803536003691BB9036A02330362E2E778
:101E9C00036A01330362DEE70220704700207047BB
:101EAC002DE9F843044642687E4B9A4200F290803A
:101EBC00E3681BB1B3F5005F40F09080236933B148
:101ECC00B3F5806F03D0B3F5C06F40F08D806369BC
:101EDC0033F00C0200D123B940F255717248FEF771
:101EEC0034F92268136923F44053E1680B431361FE
:101EFC00A3682269134362691A432168CB6823F4EF
:101F0C00B05323F00C031343CB602268536923F4C2
:101F1C004073A1690B4353612268644B9A4269D0A8
:101F2C00FFF7C6FD00EB800000EB80006568AD009C
:101F3C00B0FBF5F55E4FA7FB05356D092E01FFF7DC
:101F4C00B7FD00EB800000EB80006568AD00B0FBD6
:101F5C00F5F9FFF7ADFD00EB800000EB8000656844
:101F6C00AD00B0FBF5F5A7FB05356D094FF0640826
:101F7C0008FB15952D013235A7FB05356D0905F0CC
:101F8C00F0053544FFF794FD00EB800000EB80007A
:101F9C006668B600B0FBF6F6FFF78AFD00EB800032
:101FAC0000EB800063689B00B0FBF3F0A7FB0030F4
:101FBC00400908FB10684FEA081808F13208A7FB23
:101FCC000837C7F3431723682F449F60BDE8F88395
:101FDC0040F252713448FEF7B8F869E740F2537199
:101FEC003148FEF7B2F869E740F254712E48FEF71B
:101FFC00ACF86CE7FFF772FD00EB800000EB8000A3
:10200C006568AD00B0FBF5F5294FA7FB05356D09EB
:10201C002E01FFF763FD00EB800000EB800065688C
:10202C00AD00B0FBF5F9FFF759FD00EB800000EBBC
:10203C0080006568AD00B0FBF5F5A7FB05356D09B3
:10204C004FF0640808FB15952D013235A7FB0535BB
:10205C006D0905F0F0053544FFF740FD00EB8000FD
:10206C0000EB80006668B600B0FBF6F6FFF736FDB5
:10207C0000EB800000EB800063689B00B0FBF3F08A
:10208C00A7FB0030400908FB10684FEA081808F15C
:10209C003208A7FB0837C7F3431723682F449F6008
:1020AC0094E700BF20AA440010300008003801401B
:1020BC001F85EB51002872D010B5044683690BB311
:1020CC000368384A93420CD0A2F57442934208D06C
:1020DC0002F58062934204D040F207113248FEF7B9
:1020EC0034F8A369FBB1B3F5807F1CD0B3F5007F46
:1020FC0019D0B3F5407F16D04FF484712A48FEF7FF
:10210C0024F810E00368274A93420CD0A2F57442DD
:10211C00934208D002F58062934204D04FF486714A
:10212C002148FEF712F8A36813B1B3F5805F24D1F0
:10213C00E36943BB94F839305BB3022384F839303C
:10214C002268D36823F40053D3602046FFF7A8FE1F
:10215C002268136923F4904313612268536923F0B6
:10216C002A0353612268D36843F40053D3600020E0
:10217C00E063012384F8393010BD4FF487710A48AD
:10218C00FDF7E3FFD4E740F20F110748FDF7DDFF41
:10219C00D0E784F838302046FEF748F8CDE7012028
:1021AC00704700BF003801401030000810B590F89F
:1021BC003940E4B2012C01D0222C38D1002938D07E
:1021CC00002A38D090F83830012B36D0012380F813
:1021DC00383001628284C2840023C36390F83930A2
:1021EC00DBB2222B1FD0122380F839301346044661
:1021FC00026B13489062226B1248D062226B124819
:10220C00106322680432206BFEF760FB23686FF0CA
:10221C0040021A602268536943F080035361002026
:10222C0084F8380004E0322380F83930DEE70220ED
:10223C0010BD0120FCE70120FAE70220F8E700BFFF
:10224C0059220008B72200087923000808B5436A10
:10225C000268126812F0200F0CD10022DA8419687F
:10226C004A6922F080024A611A68D36843F040033D
:10227C00D36008BD184600F0FEFCFAE708B502680A
:10228C00D36823F04003D36090F83930DBB2322BA3
:10229C0006D0012380F8393000F0EDFC002008BD99
:1022AC00222380F83930F7E7704708B5406AFFF70A
:1022BC00FBFF08BD08B590F83930DBB2222B01D0FA
:1022CC00322B4ED18368B3F5805F29D00369002B84
:1022DC003AD103685A68836A591C81621A70C38D9B
:1022EC00013B9BB2C385002B3DD10268D36823F020
:1022FC002003D36090F83930DBB2322B2DD002683A
:10230C00D36823F48073D3600268536923F001030C
:10231C005361012380F8393000F0ACFC002008BD7B
:10232C00826A036943B903685B68C3F308031380CB
:10233C00836A02338362D2E703685B68DBB2138083
:10234C00836A01338362CAE703685B68826A511C43
:10235C00816203F07F031370C1E7122380F83930D8
:10236C00DAE70220DBE70020D9E7704708B5406ABE
:10237C000023C385C384012380F83930C36B43F039
:10238C001003C363FFF7F1FF08BD10B582B004461C
:10239C0003681968DA6811F0010F06D002F4807234
:1023AC001AB1C26B42F00102C26319685A6902F099
:1023BC00010211F0020F04D01AB1E16B41F00401DB
:1023CC00E163196811F0040F04D01AB1E16B41F00C
:1023DC000201E163196811F0080F04D01AB1E26B25
:1023EC0042F00802E2631A68DB6803F0200312F083
:1023FC00200F00D0ABB923681A68DB6803F08003A8
:10240C0012F0800F00D083B923681A68DB6803F0E0
:10241C00400312F0400F00D05BB9E36B6BB902B014
:10242C0010BD2046FFF746FFE5E72046FFF702FD0B
:10243C00EAE72046FFF722FFEFE723681A680192CC
:10244C005B680193019B012384F839302046FFF728
:10245C008CFFE4E7014B1860704700BF00040020BC
:10246C00014B5860704700BF00040020014B98607E
:10247C00704700BF00040020014BD860704700BFBC
:10248C000004002010B50446032806D80549064B65
:10249C0053F82400FEF792FB10BD23210348FDF7EF
:1024AC0054FEF3E7000400207030000848300008A8
:1024BC0070B504460D461646032807D8F2B22946D5
:1024CC00054B53F82400FEF719FD70BD2821034875
:1024DC00FDF73BFEF2E700BF703000084830000803
:1024EC0038B504460D46032806D82946054B53F843
:1024FC002400FEF7EFFC38BD2D210348FDF725FE27
:10250C00F3E700BF7030000848300008014B5860FA
:10251C00704700BF64000020014B9860704700BFFB
:10252C006400002008B50548FEF706FD08B101203F
:10253C0008BD0248FEF750FD0020F9E764000020BA
:10254C0008B50248FEF75DFD08BD00BF6400002021
:10255C0008B50248FFF7AFFB08BD00BF74000020B0
:10256C0008B50248FFF7A7FB08BD00BF74000020A8
:10257C0038B504460D46022804D8054B53F82430D0
:10258C005D6038BD38210348FDF7DFFDF5E700BF7E
:10259C00AC3000088030000808B5054B53F820001B
:1025AC00FFF788FD08B9002008BD0120FCE700BF3B
:1025BC00AC30000808B50A4601460448FFF7F6FDA2
:1025CC0008B9002008BD4FF0FF30FBE7F0000020F9
:1025DC000FB400B583B004A951F8040B019100F0BD
:1025EC00B7F803B05DF804EB04B0704738B5054696
:1025FC000B4B1C6802E0012000F026FB094B1B78FA
:10260C0023B96319064A12689342F4D82C44044B3C
:10261C001B689C4201D9002038BD0120FCE700BF9B
:10262C00180800207001002008B56420FFF7DEFFB9
:10263C0098B90A4B1B686BB1084A591C11600A21E6
:10264C00197007481168091A89B2FFF7B3FF054BD7
:10265C0000221A70014B024A1A6008BD10080020B3
:10266C0010040020700100200FB430B583B006AC0C
:10267C0054F8045B6420FFF7B9FF01942146284607
:10268C0000F066F8074B1B68074A9B1AB3F5617F8D
:10269C0004DC03B0BDE8304004B07047FFF7C4FF62
:1026AC00F7E700BF100800201004002008B42DE943
:1026BC00F04183B080460E46174609AC54F8045BD3
:1026CC006420FFF793FF43463A4631460848FFF72C
:1026DC007FFF01942146284600F03AF80548FFF7A1
:1026EC0077FFFFF7A1FF03B0BDE8F04101B07047E1
:1026FC00B8300008C8300008014B01221A7070472E
:10270C007001002010B504460A2807D0094B1B683D
:10271C0043B1591C074A11601C7010BD0D20FFF706
:10272C00F1FFF3E7044B1B68002BF6D020469847CB
:10273C00F3E700BF100800201408002010B5044671
:10274C0002E00134FFF7DEFF20780028F9D110BD3C
:10275C002DE9F04786B00646019102E0FFF7D2FF63
:10276C002646741C3078002800F0EC802528F5D122
:10277C00B21C7078302804D02D2806D000250024F7
:10278C000FE0F21CB0780125F9E7F21CB0780225B5
:10279C00F5E704EB840463001844A0F130041078CE
:1027AC000132A0F13003DBB2092BF2D96C2803D033
:1027BC004C2801D0164603E045F00405561C107851
:1027CC00002800F0BF80602814D9A0F12003DBB2F0
:1027DC00A3F14202162A41D8DFE802F043333A4013
:1027EC00404040404040404040464040400E403A0F
:1027FC0040403D000346EBE7019B1A1D0192D3F8C4
:10280C000090002700E0013719F80730002BFAD1AF
:10281C0003E02020FFF776FF474615F0020F04D1A6
:10282C0007F10108A742F4D347464846FFF786FF55
:10283C0003E02020FFF766FF2F467D1CA742F8D34C
:10284C008FE7019B1A1D01921878FFF75BFF88E751
:10285C004FF00A0E0AE04FF0100E07E0FFF752FFA0
:10286C007FE74FF0020E01E04FF0080E15F0040F59
:10287C0008D0019A111D01911168442B0ED04FF014
:10288C00000C20E0442B04D0019A111D0191116819
:10289C00F3E7019A111D01911168EEE70029EEDAB8
:1028AC00494245F00805EAE727273B44DBB20CF127
:1028BC00010730330DF11808E04408F8103C72B1F0
:1028CC000F2F0CD8BC46B1FBFEF20EFB1213DBB281
:1028DC001146092BEBD97828E6D00727E5E715F048
:1028EC00080F06D006AB1F442D2307F8103C0CF143
:1028FC00020715F0010F03D04FF0300AB84606E07E
:10290C004FF0200AFAE75046FFF7FCFEC84615F0D8
:10291C00020F04D108F10109A045F4D3C846013FC8
:10292C0006AB3B4413F8100CFFF7ECFE002FF6D16E
:10293C0003E02020FFF7E6FEA84608F10105A045BC
:10294C00F7D30EE706B0BDE8F08700207047000013
:10295C0000B595B009230A934FF480330B930022F2
:10296C000C92012210920222119212934FF4E01356
:10297C0013930AA8FEF76CFB48BB0F2305930221A7
:10298C000691002307934FF480620892099305A8DF
:10299C00FEF738FF30BB022301934FF4004303933F
:1029AC0001A8FFF7B1F830BBFFF77CF84FF47A734E
:1029BC00B0FBF3F0FDF7A4FE0420FDF7B7FE0022F8
:1029CC0011464FF0FF30FDF73FFE002007E00E4BA5
:1029DC0040F237120D490E48FFF768FE012015B082
:1029EC005DF804FB0B4B4FF4A17208490848FFF744
:1029FC005DFE0120F3E7084B40F2491203490448FD
:102A0C00FFF754FE0120EAE7CC30000850310008F3
:102A1C00DC300008E0300008F430000800B585B068
:102A2C00224B9A6942F004029A619A6902F00402FC
:102A3C000092009A9A6942F008029A619A6902F02F
:102A4C0008020192019A9A6942F010029A619A69FD
:102A5C0002F010020292029A9A6942F020029A61E4
:102A6C009B6903F020030393039B4FF40050FFF783
:102A7C00F1FC0020FFF7F4FC0020FFF7F7FC02202C
:102A8C00FFF700FD2020FFF7E5FC0120FFF7E8FC35
:102A9C000220FFF7F1FC0020FFF7F4FC00222021BC
:102AAC001046FFF705FD05B05DF804FB0010024071
:102ABC0010B5FDF77DFD10B10124204610BDFFF7C8
:102ACC0047FF08B10124F8E74FF4E1310120FFF78B
:102ADC004FFD0120FFF760FDFFF7A6FDFFF79EFFFE
:102AEC00FDF72EFB0D4B4FF48C720D490D48FFF783
:102AFC00DDFD0220FFF70AFDFA20FFF70DFDFFF7C1
:102B0C0011FD044610B9FDF71BFBD6E7064B40F24E
:102B1C001D1203490548FFF7C9FDCEE71031000827
:102B2C00483100082031000824310008DC3000084E
:102B3C002DE9F04182B0FFF7BBFF68B10090374B35
:102B4C003D2237493748FFF7B1FD6420FFF74EFDB2
:102B5C00012002B0BDE8F0810A20FFF7F6FE8046A6
:102B6C0050B10090304B44222D492E48FFF79EFD6A
:102B7C006420FFF73BFDEBE72C4B00221A602C4B3B
:102B8C004C2227492B48FFF791FD2B48FFF76CFD92
:102B9C00FFF74AFD4446454601262DE001254FF43A
:102BAC0000510220FFF79CFC012834D01F4F3B68DA
:102BBC002248FFF759FD39680095C4F16403224699
:102BCC001F48FFF751FDFFF72FFD184B19681D4BE0
:102BDC00A3FB0123DB0803EB83035A008B1A042BA2
:102BEC00F3D1124B1968174BA3FB0123DB0803EB42
:102BFC0083035A009142F4D1FFF7A2FC4FF4005129
:102C0C000220FFF76DFC0028C9D1002EC6D001347C
:102C1C0001250026C3E745460126C7E760310008B9
:102C2C0040310008DC30000874310008180800201E
:102C3C0090310008203100089C310008A0310008B8
:102C4C00A8310008CDCCCCCC10B582B00446084BD2
:102C5C001B68019301E0FFF773FC019B2344044ABA
:102C6C0012689342F7D8FFF76BFC02B010BD00BF9F
:102C7C0018080020704708B5FFF73EFD08BD00009E
:102C8C00002103E00B4B5B58435004310A480B4BBB
:102C9C0042189A42F6D30A4A02E0002342F8043B57
:102CAC00084B9A42F9D3FDF749FC00F00FF8FFF7F7
:102CBC003FFF7047C4310008000000207401002061
:102CCC00740100201C080020FEE7000070B50025F0
:102CDC000C4E0D4CA41BA410A54209D100F026F8F3
:102CEC0000250A4E0A4CA41BA410A54205D170BDA8
:102CFC0056F8253098470135EEE756F825309847B9
:102D0C000135F2E7BC310008BC310008BC310008C9
:102D1C00C031000810B5431E0A44914200D110BDC9
:102D2C0011F8014B03F8014FF7E70000F8B500BFAD
:102D3C00F8BC08BC9E467047F8B500BFF8BC08BC90
:042D4C009E467047E8
:102D500002030405060708090A0B0C0D0E0F1010DC
:102D6000010200000000000014000000ECFFFFFF63
:102D70006C6566742061646A7573740000000000FD
:102D8000250000000000000000000000140000000A
:102D9000ECFFFFFF72696768742061646A75737481
:102DA00000000000250000000000000032000000CC
:102DB000C8000000000000007374656572696E67EA
:102DC0002074696D650000002A31306D73000000C9
:102DD0000A000000E7030000010000007263207495
:102DE000696D656F757400000000000073000000DD
:102DF00000000000040000000600000002000000C7
:102E0000726320636E74722074686572657300006B
:102E10002F31360000000000040000000600000012
:102E200002000000726320636E7472207468657221
:102E3000657300002F313600000000000400000020
:102E40000600000002000000726320636E747220AE
:102E500074686572657300002F3136000000000051
:102E600004000000060000000200000072632063FE
:102E70006E74722074686572657300002F313600BD
:102E80000000000004000000060000000200000036
:102E9000726320636E7472207468657265730000DB
:102EA0002F3136000000000000000000000000008C
:102EB00001020304060708090000000001020304E0
:102EC000447269766572732F53544D3332463178AC
:102ED000785F48414C5F4472697665722F53726324
:102EE0002F73746D3332663178785F68616C5F631D
:102EF0006F727465782E6300447269766572732F01
:102F000053544D3332463178785F48414C5F4472B8
:102F1000697665722F5372632F73746D3332663125
:102F200078785F68616C5F646D612E6300000000FB
:102F3000447269766572732F53544D33324631783B
:102F4000785F48414C5F4472697665722F537263B3
:102F50002F73746D3332663178785F68616C5F67A8
:102F600070696F2E63000000447269766572732F7A
:102F700053544D3332463178785F48414C5F447248
:102F8000697665722F5372632F73746D33326631B5
:102F900078785F68616C5F697764672E6300000012
:102FA000447269766572732F53544D3332463178CB
:102FB000785F48414C5F4472697665722F53726343
:102FC0002F73746D3332663178785F68616C5F722D
:102FD00063632E6300000000447269766572732F8C
:102FE00053544D3332463178785F48414C5F4472D8
:102FF000697665722F5372632F73746D3332663145
:1030000078785F68616C5F7263635F65782E6300D8
:10301000447269766572732F53544D33324631785A
:10302000785F48414C5F4472697665722F537263D2
:103030002F73746D3332663178785F68616C5F75B9
:103040006172742E63000000447269766572732F9A
:103050006D6964646C654C61796572732F47504982
:103060004F2F5372632F4D575F4750494F2E6300C8
:1030700000080140000C0140001001400014014014
:10308000447269766572732F6D6964646C654C6116
:10309000796572732F554152542F5372632F4D57D8
:1030A0005F55534152542E6300000000B0000020D1
:1030B000F000002030010020252D31307320252D17
:1030C000336420252D3873000A0000006F736343BA
:1030D0006F6E6669674661696C64000065727200B4
:1030E000636C6F636B436F6E6669674661696C649E
:1030F0000000000048414C5F52434345785F5065F3
:1031000072697068434C4B436F6E666967000000DC
:103110004957444720696E697469616C697A650032
:103120006D7367004957444720696E697469616C23
:10313000697A65206661696C6564210A0000000097
:103140006D61696E0000000053595F696E6974001B
:1031500053595F636C6F636B496E697400000000C4
:10316000696E697469616C697A65204661696C642D
:1031700025640000493243436F6E6E656374696F66
:103180006E54657374204661696C642564000000A8
:10319000737461727421210A000000001B5B324AC3
:1031A0001B5B313B31480000666C757368202564F9
:0C31B0002025642025642025640A00000E
:0431BC0031010008D5
:0431C0000D010008F5
:1031C400B401002090010020D8010020FC0100205F
:1031D4002002002044020020680200208C0200200B
:1031E400B002002000A24A0400580040A08601005A
:1031F400000000000000000000400000000000008B
:1032040000000000000000000000000000000000BA
:1032140000000000000000000000000000000000AA
:10322400000000000030004000000000FF0F00001C
:1032340000000000002C014000000000000000001D
:10324400000000000000000000000000000000007A
:10325400000000000000000000000000000000006A
:10326400000000000000000000000000000000005A
:103274000038014000C2010000000000000000000E
:10328400000000000C00000000000000000000002E
:10329400000000000000000000000000000000002A
:1032A400000000000000000000000000000000001A
:1032B4000044004000C201000000000000000000C3
:1032C400000000000C0000000000000000000000EE
:1032D40000000000000000000000000000000000EA
:1032E40000000000000000000000000000000000DA
:1032F400004800408025000000000000000000009D
:10330400000000000C0000000000000000000000AD
:1033140000000000000000000000000000000000A9
:103324000000000000000000000000000000000099
:043334000100000094
:0400000508002C8D36
:00000001FF
