:020000040800F2
:10000000005000206D3B000811080008130800088C
:10001000150800081708000819080008000000006B
:100020000000000000000000000000001B080008A5
:100030001D080008000000001F0800082108000833
:10004000B53B0008B53B0008B53B0008B53B0008D0
:10005000B53B0008B53B0008B53B0008B53B0008C0
:10006000B53B0008B53B0008B53B0008B53B0008B0
:10007000590800086908000899080008A90800083C
:100080003908000849080008B53B0008B53B0008DE
:10009000B53B0008B53B0008B53B0008B53B000880
:1000A000B53B00087D320008B53B0008B53B0008B1
:1000B0008D320008B53B0008B53B0008B53B000891
:1000C000B53B0008B53B0008B53B0008B53B000850
:1000D000B53B0008B53B000889080008790800080E
:1000E000B53B0008B53B0008B53B00080000000028
:1000F0000000000000000000000000000000000000
:0C01000000000000000000005FF808F1A3
:10010C0010B5054C237833B9044B13B10448AFF345
:10011C0000800123237010BDD801002000000000D6
:10012C00183C000808B5034B1BB103490348AFF357
:10013C00008008BD00000000DC010020183C000815
:10014C00C8B9234B1979C1F30012DAB918465B7898
:10015C0043F0010323F0020343701E4B1B689342D0
:10016C0002D01D4B012018701B4B1B782BBB0020A1
:10017C00184B1A607047184B01221A700020154B4F
:10018C0018607047002AE8D01148437843F0020306
:10019C0023F001034370E0E70133032B06DC41FA43
:1001AC0003F414F0010FF7D00130F5E70A4B0021EE
:1001BC001970084B1A6010BC7047002003460328C6
:1001CC0001DC10B4EBE7044B00211970D0E700BF41
:1001DC0028000020F40100200000002011BB04289E
:1001EC0008D0A2B1043001238340224A90781843EE
:1001FC00907022E02AB11F4A937863F00F0393703A
:10020C001BE01C4A937803F00F03937015E0043045
:10021C00012303FA00F0C3435BB2164A91780B40FA
:10022C0093700AE0042809D09AB901238340DB4378
:10023C005BB2104A91780B40937070471AB10D4B1A
:10024C000F229A70F9E70B4A937823F00F039370FF
:10025C00F3E710B4031D012202FA03F3DB435BB294
:10026C0004498C7823405BB202FA00F01843887082
:10027C0010BC70472800002008B500F079F8002069
:10028C0008BD000008B54FF40051022002F070FFC9
:10029C0000B3002328E003EB43025100194A0A443F
:1002AC00012151710B44052BF5DD012200210420A5
:1002BC00FFF794FF0020FFF743FF134A136818441D
:1002CC001060124B1B68104B1968114803F05CF856
:1002DC00002008BD0023E6E703EB43025100094A66
:1002EC000A44002151710133052BF5DD0022114622
:1002FC000420FFF773FF0120FFF722FF024B0022BF
:10030C001A60DEE728000020F8010020F408002025
:10031C00443C0008FEE7000008B54FF4A272024905
:10032C00024803F067FC08BD483C0008FC010020B3
:10033C00002209E0930003F1006303F5FE33196812
:10034C00094B43F8221001320C2AF3DD002307E09D
:10035C00064A52F82320044951F823101160013346
:10036C00082BF5DD704700BF40030020040000207F
:10037C0008B5FFF7D1FFFFF7DBFF08BD00B583B071
:10038C001C4B9A6942F001029A619B6903F00103CC
:10039C000193019B032000F0F1FA002211466FF04B
:1003AC000B0000F009FB002211466FF00A0000F070
:1003BC0003FB002211466FF0090000F0FDFA002249
:1003CC0011466FF0040000F0F7FA002211466FF0AE
:1003DC00030000F0F1FA002211466FF0010000F06A
:1003EC00EBFA002211464FF0FF3000F0E5FA03B0B3
:1003FC005DF804FB00100240F0B589B003685E4A5A
:10040C00934205D005465D4A934255D009B0F0BDE4
:10041C005B4B9A6942F008029A619B6903F00803EE
:10042C000093009B544A1368C3F30E0313604FF4FC
:10043C00407304931123059302230793514C04A991
:10044C00204600F073FDE36843F44073E3604D4BCA
:10045C009B6803F44073B3F5407FF8D1494AD368E5
:10046C0023F44073D360474B9B6813F4407FFAD15D
:10047C004FF440730493122305930323079304A9A9
:10048C00404800F053FD404A536843F00203536068
:10049C003B4BDA6942F40012DA61DB6903F40013B6
:1004AC000193019B344B1A6842F400421A601A689B
:1004BC00C2F30E021A60A9E74FF4406304931223AF
:1004CC0005930323079304A92E4800F02FFD2C4B12
:1004DC00DA6942F48002DA61DA6902F4800202928B
:1004EC00029A5A6942F001025A615B6903F00103F6
:1004FC000393039B254E264B336000247460B46039
:10050C008027F76034617461B461F461304600F0A7
:10051C00F9FA2E6375621F4E1F4B33601023736004
:10052C00B460F76034617461B461F461304600F01A
:10053C00E9FAEE627562012221460E2000F03CFAC7
:10054C000E2000F07FFA012221460F2000F034FA31
:10055C000F2000F077FA22462146212000F02CFAD9
:10056C00212000F06FFA22462146222000F024FAC6
:10057C00222000F067FA49E7005400400058004080
:10058C0000100240000C01400000014088030020D4
:10059C0058000240C0030020440002402DE9F04105
:1005AC008CB00368884A93420AD00446874A934227
:1005BC0030D0874A934200F09B800CB0BDE8F081AC
:1005CC00844B9A6942F480429A619A6902F480429F
:1005DC000192019A9A6942F004029A619B6903F0B4
:1005EC0004030293029B4FF40073089302230993B4
:1005FC0003230B93784C08A9204600F097FC4FF48A
:10060C0080630893002309930A9308A9204600F0FD
:10061C008DFCD2E76F4EF36943F40033F361F36959
:10062C0003F400330393039BB36943F00403B361F6
:10063C00B36903F004030493049B0423089302237B
:10064C00099303230B93644F08A9384600F06EFC02
:10065C0008230893002509950A9508A9384600F047
:10066C0065FC736943F001037361736903F0010363
:10067C000593059B594E5A4B336010277760B56034
:10068C004FF08008C6F80C8035617561B561F56175
:10069C00304600F037FA26637462524E524B336088
:1006AC007560B560C6F80C8035617561B5614FF445
:1006BC000053F361304600F025FA666374622A46F3
:1006CC002946384600F078F9384600F0BBF901228B
:1006DC002946112000F070F9112000F0B3F9012225
:1006EC002946262000F068F9262000F0ABF964E7D3
:1006FC00384BDA6942F48022DA61DA6902F480223A
:10070C000692069A9A6942F010029A619B6903F06C
:10071C0010030793079B4FF48063089302230993FC
:10072C0003230B93314E08A9304600F0FFFB4FF426
:10073C0000630893002509950A9508A9304600F036
:10074C00F5FB2B4A536823F0300343F0100353603E
:10075C00284E294B336010237360B5608027F760F7
:10076C0035617561B561F561304600F0CBF92663F2
:10077C007462224E224B33607560B560F760356150
:10078C007561B5614FF40053F361304600F0BAF96E
:10079C00666374622A4629460D2000F00DF90D207F
:1007AC0000F050F92A4629460C2000F005F90C20DF
:1007BC0000F048F901222946272000F0FDF82720F7
:1007CC0000F040F9F9E600BF003801400044004059
:1007DC00004800400010024000080140680400205E
:1007EC0080000240F80300206C0002400010014021
:1007FC0000000140A00400201C0002403004002036
:10080C00300002407047FEE7FEE7FEE7FEE7704768
:10081C007047704708B500F095F800F05EF9024A91
:10082C0013680133136008BDF408002008B5024BAF
:10083C00586B00F043FA08BD5401002008B5024B78
:10084C00186B00F03BFA08BD5401002008B5024BB0
:10085C00186B00F033FA08BD9401002008B5024B68
:10086C00586B00F02BFA08BD9401002008B5024823
:10087C0002F0D3FB08BD00BF9401002008B502486C
:10088C0002F0CBFB08BD00BF5401002008B5024BA1
:10089C00D86A00F013FA08BD8C00002008B5024B92
:1008AC00186B00F00BFA08BD8C0000200F4B1A6877
:1008BC0042F001021A6059680D4A0A405A601A68DF
:1008CC0022F0847222F480321A601A6822F4802298
:1008DC001A605A6822F4FE025A604FF41F029A60A2
:1008EC00044B4FF000629A60704700BF001002404A
:1008FC000000FFF800ED00E010B5044601F01AFF0F
:10090C00064BA3FB0030800900F0B2F80022214610
:10091C004FF0FF3000F050F8002010BDD34D6210A6
:10092C0008B5074A136843F010031360032000F066
:10093C0025F80020FFF7E0FFFFF720FD002008BDA1
:10094C0000200240024A136801331360704700BF55
:10095C00D8040020014B1868704700BFD804002051
:10096C0010B582B00190FFF7F5FF0446FFF7F2FFD8
:10097C00001B019B9842F9D302B010BD10B5044680
:10098C00C31E042B0FD80A4AD36823F4E0631B045C
:10099C001B0C240204F4E064234343F0BF6343F4D0
:1009AC000033D36010BDBA210248FFF7B3FCEAE76D
:1009BC0000ED00E0A43D000870B505460C46164657
:1009CC000F2A25D80F2C28D81B4BDB68C3F3022326
:1009DC00C3F10702042A28BF0422191D062921D9B4
:1009EC00033B4FF0FF3101FA02F224EA02049C406F
:1009FC0001FA03F326EA03063443002D14DB240129
:100A0C00E4B205F1604505F5614585F8004370BD1C
:100A1C00D2210A48FFF77EFCD4E7D3210748FFF721
:100A2C0079FCD1E70023DCE705F00F052401E4B2E3
:100A3C00034B5C55EBE700BF00ED00E0A43D000864
:100A4C0014ED00E010B5041E08DB04F01F0264096D
:100A5C0001239340044A42F8243010BDE621034898
:100A6C00FFF758FCF1E700BF00E100E0A43D0008EF
:100A7C000138B0F1807F0AD2064B5860064AF0214B
:100A8C0082F823100020986007221A60704701201A
:100A9C00704700BF10E000E000ED00E010B5044628
:100AAC00042800D038B9042C0BD0094A136823F061
:100ABC000403136010BD4FF4DF710648FFF72AFCE6
:100ACC00F1E7034A136843F004031360F2E700BF35
:100ADC0010E000E0A43D0008704708B5FFF7FCFFEC
:100AEC0008BD10B4046863604368102B05D003681C
:100AFC0099600368DA6010BC704703689A600368F9
:100B0C00D960F8E7002800F0928010B5044603681D
:100B1C00484A934215D01432934212D01432934265
:100B2C000FD0143293420CD01432934209D01432A9
:100B3C00934206D01432934203D0B5213E48FFF7BE
:100B4C00E9FB636823B1102B02D0B3F5804F4BD176
:100B5C00A368402B01D0002B4BD1E368802B01D034
:100B6C00002B4BD123692BB1B3F5807F02D0B3F5A9
:100B7C00007F48D163692BB1B3F5806F02D0B3F518
:100B8C00006F45D1A3690BB1202B46D1E36943B16A
:100B9C00B3F5805F05D0B3F5005F02D0B3F5405FCD
:100BAC0040D194F821300BB984F82030022384F81A
:100BBC00213021680A6822F47F5222F030026368E7
:100BCC00A0680343E068034320690343606903435F
:100BDC00A0690343E069034313430B600020606387
:100BEC00012384F8213010BDB6211348FFF792FB86
:100BFC00AEE7B7211048FFF78DFBAEE7B8210E48E2
:100C0C00FFF788FBAEE7B9210B48FFF783FBB1E791
:100C1C00BA210948FFF77EFBB4E7BB210648FFF772
:100C2C0079FBB3E7BC210448FFF774FBB9E701205B
:100C3C00704700BF08000240DC3D0008F8B590F892
:100C4C002040012C35D01D4616460F460446012384
:100C5C0080F82030022380F821306A1E4FF6FE7394
:100C6C009A4220D82068036823F0010303602B46C6
:100C7C00324639462046FFF734FF2268136843F0AA
:100C8C00020313602268136843F0040313602268A4
:100C9C00136843F0080313602268136843F00103E0
:100CAC0013600020F8BD40F261110348FFF732FBDE
:100CBC00D8E70220F6E700BFDC3D000810B504467B
:100CCC00984B1A68036898498B4214D014318B42A4
:100CDC0032D014318B4231D014318B4231D014319B
:100CEC008B4231D014318B4202D04FF0006103E0C3
:100CFC004FF4000100E008210A423CD01A6812F0BF
:100D0C00080F38D01A6822F008021A602368864A45
:100D1C0093421FD01432934245D01432934244D0A4
:100D2C001432934244D01432934244D0143293423E
:100D3C000DD04FF000620EE08021DDE74FF4006132
:100D4C00DAE74FF40041D7E74FF40021D4E74FF432
:100D5C00000200E00822734B5A60636B43F00103FE
:100D6C006363042384F82130002384F82030236B40
:100D7C000BB1204698476B4B1A6823686A498B4223
:100D8C001FD014318B4241D014318B4240D01431DE
:100D9C008B4240D014318B4240D014318B420DD059
:100DAC004FF080610EE08022D5E74FF40062D2E76D
:100DBC004FF40042CFE74FF40022CCE74FF4800110
:100DCC0000E004210A4239D01A6812F0040F35D021
:100DDC001A6812F0200F03D11A6822F004021A606C
:100DEC002368514A93421FD0143293423ED014329E
:100DFC0093423DD0143293423DD0143293423DD0B5
:100E0C00143293420DD04FF080620EE04021D9E7AE
:100E1C004FF48061D6E74FF48041D3E74FF4802143
:100E2C00D0E74FF4800200E004223E4B5A601123BD
:100E3C0084F82130E36A0BB120469847394B1A6885
:100E4C00236839498B421FD014318B4241D0143165
:100E5C008B4240D014318B4240D014318B4240D065
:100E6C0014318B420DD04FF000710EE04022DCE7C4
:100E7C004FF48062D9E74FF48042D6E74FF48022DA
:100E8C00D3E74FF4001100E002210A423ED01A6869
:100E9C0012F0020F3AD01A6812F0200F03D11A6820
:100EAC0022F002021A6023681F4A93421FD01432A8
:100EBC0093422CD0143293422BD0143293422BD029
:100ECC00143293422BD0143293420DD04FF0007257
:100EDC000EE02021D9E74FF40071D6E74FF4005112
:100EEC00D3E74FF40031D0E74FF4001200E00222B8
:100EFC000C4B5A60636B6363012384F8213000232D
:100F0C0084F82030A36A0BB12046984710BD2022EC
:100F1C00EEE74FF40072EBE74FF40052E8E74FF4C2
:100F2C000032E5E700000240080002402DE9F043E2
:100F3C0083B080460F46B54B984213D003F58063BF
:100F4C0098420FD003F5806398420BD003F5806371
:100F5C00984207D003F58063984203D0CF21AC4868
:100F6C00FFF7D8F93B882BB37B68012B1ED9112BCB
:100F7C001CD0022B1AD0122B18D0A64A934215D093
:100F8C0002F58012934211D002F5801293420DD0DB
:100F9C00A2F5F812934209D002F58012934205D0C3
:100FAC0002F58012934201D0032B08D14FF00009B7
:100FBC004E46DDE0D0219648FFF7ACF9D4E7D121BD
:100FCC009348FFF7A7F9F1E7002B5ED0012B05D171
:100FDC00FB68013B022B65D8D7F80C90FF2C00F274
:100FEC0096804046FF2C00F29580B20003680F21DA
:100FFC00914023EA010309FA02F2134303607B6870
:10100C0013F0805F00F0B380834B9A6942F00102C9
:10101C009A619B6903F001030193019BB208911C37
:10102C007E4B53F8210006F0030399000F238B40ED
:10103C0020EA0300754B984572D003F58063984500
:10104C0000F0CD8003F58063984500F0CA8003F56D
:10105C008063984562D0042363E0714A934214D0B4
:10106C000BD9704A934210D002F5803293420CD0C7
:10107C00A2F580129342B1D107E0A2F580129342FF
:10108C0003D002F580329342A8D1BB68022B2DD835
:10109C00BB68002B38D0012B2ED0C8F814504FF061
:1010AC0008099BE7E7215A48FFF734F994E7EE214A
:1010BC005748FFF72FF98EE0FB68013B022B03D852
:1010CC00FB6803F1080989E7F5215148FFF722F97C
:1010DC00F6E7FB68013B022B03D8FB6803F10C0914
:1010EC007CE7FC214A48FFF715F9F6E740F20911B5
:1010FC004748FFF70FF9CBE7C8F810504FF0080935
:10110C006CE74FF0000969E74FF0040966E708F156
:10111C00040067E7A6F10802920067E7032300E0EA
:10112C0000238B40034302323C4941F822307B6858
:10113C0013F4803F57D03C4A1368234313607B68F9
:10114C0013F4003F55D0384A5368234353607B68EF
:10115C0013F4801F53D0344A9368234393607B6805
:10116C0013F4001F62D0304AD3681C43D46001369C
:10117C000F2E61D80125B5403C682C40A542F6D114
:10118C00224B984513D003F5806398450FD003F597
:10119C00806398450BD003F58063984507D003F521
:1011AC008063984503D0DF211948FFF7B3F87B68BB
:1011BC00122B8ED03FF651AF022B3FF47DAF7FF652
:1011CC0003AF032B9DD0112B7FF408AFFB68013BC1
:1011DC00022B3FF66CAFFB6803F10409FEE601231A
:1011EC009FE702239DE7104A136823EA0403136068
:1011FC00A5E70D4A536823EA04035360A7E70A4A9C
:10120C00936823EA04039360A9E700BF0008014038
:10121C00143E0008000011100010024000000140B4
:10122C00000021100000311000040140044AD36872
:10123C0023EA0404D4609AE703B0BDE8F08300BF4E
:10124C000004014038B505460C4621B1AB681C4280
:10125C0007D1002038BD4FF4E2710348FFF75AF86C
:10126C00F4E70120F6E700BF143E000870B506460F
:10127C0015460C4629B1012D09D875B924043461E1
:10128C0070BD4FF4F2710648FFF744F8F3E740F2F3
:10129C00E5110348FFF73EF8EFE73461F0E700BFD4
:1012AC00143E00084368124A934209D85800B1FB17
:1012BC00F0F0C0F30B03032B00D9704704207047E8
:1012CC0082685AB903EB4300B1FBF0F040F40040E4
:1012DC00C0F30B03002BF0D10120EEE703EB8300EE
:1012EC0000EB8000B1FBF0F040F44040F0E700BFB1
:1012FC00A086010003685A6912F4806F0DD05A69F8
:10130C0022F480625A6104238363202380F83530F1
:10131C00002380F8343001207047002070472DE9FD
:10132C00F04106460C4690461D46FFF713FB074658
:10133C00B8F1000F1AD043E025B1FFF70BFBC01B2F
:10134C00A84213D9202386F83530002386F8343090
:10135C00032019E033685B6924EA03039BB2003372
:10136C0018BF01237BB1B5F1FF3FE5D1C4F30743AF
:10137C00012BEFD033689B6924EA03039BB2003343
:10138C0018BF0123EEE70020BDE8F08125B1FFF77F
:10139C00E1FAC01BA84213D9202386F8353000236C
:1013AC0086F834300320EFE733685B6924EA0303E3
:1013BC009BB2B3FA83F35B097BB1B5F1FF3FE5D187
:1013CC00C4F30743012BEFD033689B6924EA030372
:1013DC009BB2B3FA83F35B09EEE70020D4E7F8B5D0
:1013EC0004460D461646FFF7B5FA074631E01A6873
:1013FC0042F400721A602268536923F480635361CB
:10140C000423A363202384F83530002384F834307C
:10141C0001202CE026B1FFF79DFAC01BB04218D971
:10142C00202384F83530002384F8343003201EE068
:10143C0023685B6925EA03039BB2003318BF0123C1
:10144C00A3B123685A6912F4806FD0D1B6F1FF3F73
:10145C00E0D1C5F30743012BEAD023689B6925EA49
:10146C0003039BB2003318BF0123E9E70020F8BD4A
:10147C0070B504460D4616460268136843F4807333
:10148C001360334600224FF00111FFF748FF48BBB1
:10149C002369B3F5804F0FD1236805F0FE051D615C
:1014AC00324614492046FFF79AFF0346D8B1A36B86
:1014BC00042B1CD1012316E0EB11226803F0060368
:1014CC0043F0F003136132460B492046FFF787FFC8
:1014DC0020B1A36B042B08D1012304E02368EDB2E7
:1014EC001D61DDE70323184670BD0323FBE70323CF
:1014FC00F9E700BF0200010008000100F0B583B05D
:10150C0004460D4616460268136843F48063136064
:10151C000268136843F480731360334600224FF063
:10152C000111FFF7FCFE00284CD12369B3F5804F65
:10153C0011D1236845F00105EDB21D6132462749F2
:10154C002046FFF74CFF034600283CD0A36B042B2E
:10155C0042D1012337E0EF1107F00607236847F06B
:10156C00F0021A6132461E492046FFF738FF20B1BF
:10157C00A36B042B2AD1012325E02368EDB21D6156
:10158C00324616492046FFF72AFF20B1A36B042BE5
:10159C001ED1012317E023685A6901929A690192BE
:1015AC00019A1A6842F480721A60334600224FF096
:1015BC0001112046FFF7B3FE60B9236847F0F1072D
:1015CC001F61BBE70323184603B0F0BD0323FAE702
:1015DC000323F8E70323F6E70323F4E702000100F3
:1015EC000800010070B504460D46FFF7B3F9064636
:1015FC0023685B6913F0800F18D12046FFF77AFE41
:10160C00B0B9B5F1FF3FF3D025B1FFF7A3F9801BBB
:10161C00A842EDD9A36B43F02003A363202384F8E5
:10162C003530002384F83430032000E0002070BDF6
:10163C000120FCE770B504460D46FFF78BF9064612
:10164C0023685B6913F0040F18D12046FFF752FE94
:10165C00B0B9B5F1FF3FF3D025B1FFF77BF9801B93
:10166C00A842EDD9A36B43F02003A363202384F895
:10167C003530002384F83430032000E0002070BDA6
:10168C000120FCE770B505460C46FFF763F90646EA
:10169C002B685A6912F0400F22D15A6912F0100FC0
:1016AC0011D124B1FFF756F9801BA042F0D9AB6BD6
:1016BC0043F02003AB63202385F83530002385F8F5
:1016CC003430032070BD5A6922F010025A61002395
:1016DC00AB63202285F8352085F834300120F1E702
:1016EC000020EFE7002800F0B38038B5044603680B
:1016FC00584A934208D002F58062934204D04FF4CA
:10170C00A5715548FEF706FE6368013B534A9342A8
:10171C005ED8A36813B1B3F5804F5FD1E36823F4AF
:10172C007F7323F00303002B5ED12369B3F5804F45
:10173C0002D0B3F5404F5DD16369012B60D8A3692A
:10174C0033F0FE0362D1E3690BB1402B64D1236A01
:10175C000BB1802B66D194F83530002B68D0242344
:10176C0084F835302268136823F00103136000F00D
:10177C00E7FF01463A4BA3FB00239B0C2268536006
:10178C006068384A904259D8013322681362256840
:10179C002046FFF787FDE861E369216A22680B4365
:1017AC0013602369E16822680B4393606369A16944
:1017BC0022680B43D3602268136843F00103136063
:1017CC000020A063202384F8353084F8360038BD1F
:1017DC0040F24B112048FEF79DFD9AE74FF4A6719D
:1017EC001D48FEF797FD99E740F24D111A48FEF798
:1017FC0091FD9AE74FF4A7711748FEF78BFD9BE715
:10180C0040F24F111448FEF785FD98E74FF4A8718C
:10181C001148FEF77FFD96E740F251110E48FEF796
:10182C0079FD94E74FF4A9710B48FEF773FD92E72D
:10183C0084F834302046FEF7DFFD90E74FF49672C3
:10184C0002FB03F3084AA2FB03239B0901339CE729
:10185C0001207047005400404C3E00087F1A0600DF
:10186C0083DE1B43A0860100D34D6210F0B583B01C
:10187C001E4690F83530DBB2202B7FD104460F4644
:10188C001546002A7ED00EB9012378E042F210737F
:10189C0001224149FFF743FD002875D194F83430FB
:1018AC00012B73D0012384F834302268136823F49D
:1018BC0000631360212384F83530102384F836300C
:1018CC000023A363089A39462046FFF7D1FD60B187
:1018DC00A36B042B04D1002384F8343001234EE095
:1018EC00002384F83430032349E023685A690192B9
:1018FC009B690193019B0BE0A36B042B48D12268DD
:10190C00136843F400731360012338E01E46154638
:10191C00C6B108992046FFF765FE0028ECD16A1C79
:10192C00236829781961731E9BB22168486910F0ED
:10193C00040FEBD0002BE9D0AA1C6B780B61023E94
:10194C00B3B2E3E708992046FFF774FE034648B1AB
:10195C00A36B042B1ED12268136843F4007313602D
:10196C0001230CE021680A6842F400720A6020220C
:10197C0084F83520002284F8342000E00223184635
:10198C0003B0F0BD0123FAE70223F8E70223F6E7E0
:10199C000323F4E70323F2E702001000F0B585B04F
:1019AC001C4690F83530DBB2202B40F0F680054613
:1019BC000F461646002A00F0F4800CB90127EDE022
:1019CC0042F2107301227D49FFF7A9FC002840F078
:1019DC00EA8095F83430012B00F0E780012385F87C
:1019EC0034302A68136823F400631360222385F8CB
:1019FC003530102385F836300023AB630A9A39460C
:101A0C002846FFF77BFD074660B1AB6B042B04D176
:101A1C00002385F834300127C0E0002385F83430EA
:101A2C000327BBE0012C0DD0022C1DD02A681368B3
:101A3C0043F4806313602B685A6903929B69039388
:101A4C00039B50E02A68136823F48063136072B61A
:101A5C002B685A6901929A690192019A1A6842F4A8
:101A6C0000721A6062B63EE02A68136843F40063A1
:101A7C00136072B62B685A6902929A690292029AA2
:101A8C001A6822F480621A6062B62CE00A99284621
:101A9C00FFF7F8FD30B92B681B693370013CA4B219
:101AAC00013620E0AB6B202B01D0012776E0032719
:101ABC0074E00A9B002242492846FFF730FC0028BC
:101ACC0075D172B62A68136843F4007313602B68DF
:101ADC001A69334603F8022B62B62A6812697270CF
:101AEC00023CA4B21E46002C4ED0032C2CD8012C48
:101AFC00CCD0022CDDD00A9B002231492846FFF7BE
:101B0C000EFC002855D12A68136823F480631360F7
:101B1C0072B62B681B6933700A9B00222849284631
:101B2C00FFF7FDFB002846D12A68136843F40073C5
:101B3C0013602B681B69737062B62B681B69B370DA
:101B4C00033CA4B20336CEE70A992846FFF79AFD68
:101B5C0080B92B681B69701C3370631E9BB22A689A
:101B6C00516911F0040F0CD013697370023CA4B2CC
:101B7C000236B8E7AB6B202B01D001270EE0032710
:101B8C000CE01C460646AEE7202385F835300023D2
:101B9C0085F8363085F8343000E00227384605B039
:101BAC00F0BD0127FAE70227F8E70227F6E703273B
:101BBC00F4E70327F2E70327F0E700BF0200100069
:101BCC000400010070470000002844D010B5044602
:101BDC000268234B9A4203D0A6212248FEF79AFBB7
:101BEC006368062B28D8A368B3F5805F29D22368D5
:101BFC00DA6812F0010F03D0DB6813F0020F2CD15E
:101C0C00637B1BB302236373236845F255521A603E
:101C1C002268536823F0070361680B435360226802
:101C2C00936823F47F6323F00F03A1680B43936045
:101C3C0001236373002010BDA7210A48FEF76AFB3D
:101C4C00D1E7A8210748FEF765FBD0E723732046B0
:101C5C00FFF7B8FFD6E7012070470120EBE700BF84
:101C6C0000300040843E0008037B012B0FD0022380
:101C7C00437303684CF6CC421A6003684AF6AA22F6
:101C8C001A60012343730023037318467047022024
:101C9C00704738B5037B012B1FD004460123037317
:101CAC0002234373FEF756FE05462368DA6812F0EA
:101CBC00020F0AD0FEF74EFE401BB0F57A7FF4D926
:101CCC00032060730023237306E04AF6AA221A60ED
:101CDC00012363730020207338BD0220FCE7000051
:101CEC0030B583B0044688B3236813B113F00F0FDB
:101CFC0032D0236813F0010F56D063682BB1B3F5C3
:101D0C00803F02D0B3F5A02F2CD1C64B5B6803F0FB
:101D1C000C03042B31D0C34B5B6803F00C03082B72
:101D2C0026D06368B3F5803F00F08380002B40F031
:101D3C00A58003F1804303F504331A6822F4803242
:101D4C001A601A6822F480221A6077E04FF48771C7
:101D5C00B548FEF7DFFAC7E740F20F11B248FEF7BD
:101D6C00D9FAC6E740F21511AF48FEF7D3FACCE723
:101D7C00AC4B5B6813F4803FD3D04FF4003393FA31
:101D8C00A3F3A84B1A684FF4003393FAA3F3B3FAF6
:101D9C0083F303F01F0322FA03F313F0010F03D0B4
:101DAC006368002B00F02083236813F0020F00F00F
:101DBC00D3802369012B00F2998063691F2B00F2F9
:101DCC009B80984B5B6813F00C0F00F0A180954B37
:101DDC005B6803F00C03082B00F094802369002B44
:101DEC0000F0F880012292FAA2F3B3FA83F39B007D
:101DFC0003F1844303F584031A60FEF7ABFD05463B
:101E0C00022393FAA3F3874B1A68022393FAA3F3E2
:101E1C00B3FA83F303F01F0322FA03F313F0010F59
:101E2C0040F0C980FEF796FD401B0228E8D903203C
:101E3C00E1E27C4A136843F4803313606368002B3F
:101E4C0036D0FEF787FD05464FF4003393FAA3F323
:101E5C00744B1A684FF4003393FAA3F3B3FA83F379
:101E6C0003F01F0322FA03F313F0010F9CD1FEF7CA
:101E7C0071FD401B6428E7D90320BCE2B3F5A02F09
:101E8C0009D0684B1A6822F480321A601A6822F45E
:101E9C0080221A60D2E703F18043A3F53C331A6821
:101EAC0042F480221A601A6842F480321A60C5E744
:101EBC00FEF750FD05464FF4003393FAA3F3594B4C
:101ECC001A684FF4003393FAA3F3B3FA83F303F0D5
:101EDC001F0322FA03F313F0010F3FF465AFFEF773
:101EEC0039FD401B6428E6D9032084E240F24911F5
:101EFC004D48FEF70FFA60E74FF4A5714A48FEF71C
:101F0C0009FA5EE7474B5B6813F4803F7FF466AFDA
:101F1C00022393FAA3F3434B1A68022393FAA3F315
:101F2C00B3FA83F303F01F0322FA03F313F0010F48
:101F3C0004D02369012B01D001205CE239480368ED
:101F4C0023F0F8036169F82292FAA2F2B2FA82F253
:101F5C0001FA02F213430360236813F0080F70D0E8
:101F6C00A369012B64D8A369002B00F09280012295
:101F7C0092FAA2F3B3FA83F32C4941F82320FEF72B
:101F8C00E9FC0546022393FAA3F293FAA3F2254A3D
:101F9C00526A93FAA3F3B3FA83F303F01F0322FA02
:101FAC0003F313F0010F49D1FEF7D4FC401B0228B8
:101FBC00E8D903201FE21B48036823F0F80361698A
:101FCC00F82292FAA2F2B2FA82F201FA02F2134366
:101FDC000360C1E7012393FAA3F3B3FA83F39B00E5
:101FEC0003F1844303F5840300221A60FEF7B2FC6C
:101FFC000546022393FAA3F30A4B1A68022393FAB9
:10200C00A3F3B3FA83F303F01F0322FA03F313F0E1
:10201C00010FA1D0FEF79EFC401B0228E9D903203A
:10202C00E9E100BF00100240BC3E000880044242BF
:10203C004FF4C571AC48FEF76DF994E70120FEF73B
:10204C008FFC236813F0040F00F0CF80E368012BA2
:10205C0001D9052B42D1A54BDA6942F08052DA61E5
:10206C00DB6903F080530193019BA14A136843F48D
:10207C0080731360FEF76EFC05469D4B1B6813F4D2
:10208C00807F31D1FEF766FC401B6428F5D9032014
:10209C00B1E1012393FAA3F3B3FA83F3954A002138
:1020AC0042F82310FEF756FC0546022393FAA3F2DE
:1020BC0093FAA3F28D4A526A93FAA3F3B3FA83F319
:1020CC0003F01F0322FA03F313F0010FB9D0FEF74C
:1020DC0041FC401B0228E8D903208CE140F2B711E7
:1020EC008148FEF717F9B6E7E368012B0DD0C3B9A9
:1020FC0003F1804303F504331A6A22F001021A62D9
:10210C001A6A22F004021A6204E0784A136A43F055
:10211C0001031362E368002B3ED0FEF71BFC05465F
:10212C002BE0052B09D0714B1A6A22F001021A62BE
:10213C001A6A22F004021A62ECE76C4B1A6A42F03B
:10214C0004021A621A6A42F001021A62E2E7674B51
:10215C001A6A022393FAA3F3B3FA83F303F01F036F
:10216C0022FA03F313F0010F3FD1FEF7F3FB401BF0
:10217C0041F28833984200F23981022393FAA3F298
:10218C0093FAA3F3B3FA83F35B0943F00203022B34
:10219C00DDD0564B5A6ADCE7FEF7DCFB054615E052
:1021AC00524B1A6A022393FAA3F3B3FA83F303F0A4
:1021BC001F0322FA03F313F0010F16D0FEF7CAFB2C
:1021CC00401B41F28833984200F21281022393FAA9
:1021DC00A3F293FAA3F3B3FA83F35B0943F002037C
:1021EC00022BDDD0414B5A6ADCE7E369022B68D83D
:1021FC00E369002B00F0FE803C4A526802F00C02AE
:10220C00082A00F0FA80022B40F0C280236A13B136
:10221C00B3F5803F5BD1636A4BB3B3F5802F26D007
:10222C00B3F5002F23D0B3F5402F20D0B3F5801F8A
:10223C001DD0B3F5A01F1AD0B3F5C01F17D0B3F53E
:10224C00E01F14D0B3F5001F11D0B3F5101F0ED042
:10225C00B3F5201F0BD0B3F5301F08D0B3F5401FDA
:10226C0005D0B3F5501F02D0B3F5601F35D14FF038
:10227C00807393FAA3F3B3FA83F39B0003F18443C3
:10228C0003F5840300221A60FEF764FB05464FF049
:10229C00007393FAA3F3154B1A684FF0007393FA7B
:1022AC00A3F3B3FA83F303F01F0322FA03F313F03F
:1022BC00010F21D0FEF74EFB401B0228E7D903206B
:1022CC0099E040F247210848FEF724F890E74FF4D4
:1022DC0014710548FEF71EF89DE740F251210248A3
:1022EC00FEF718F8C3E700BFBC3E00080010024020
:1022FC000070004080044242236AB3F5803F32D024
:10230C003F494B6823F47413226A606A02431343F7
:10231C004B604FF0807393FAA3F3B3FA83F39B00F3
:10232C0003F1844303F5840301221A60FEF712FBC8
:10233C0004464FF0007393FAA3F3314B1A684FF035
:10234C00007393FAA3F3B3FA83F303F01F0322FA97
:10235C0003F313F0010F19D1FEF7FCFA001B02284E
:10236C00E7D9032047E0A36813B1B3F5003F07D1C9
:10237C00234A536823F40033A1680B435360BFE72F
:10238C0040F267211F48FDF7C5FFF1E7002032E05E
:10239C004FF0807393FAA3F3B3FA83F39B0003F12A
:1023AC00844303F5840300221A60FEF7D3FA044633
:1023BC004FF0007393FAA3F3114B1A684FF00073AC
:1023CC0093FAA3F3B3FA83F303F01F0322FA03F394
:1023DC0013F0010F06D0FEF7BDFA001B0228E7D957
:1023EC00032008E0002006E0012004E0032002E0C6
:1023FC00032000E0002003B030BD0120FBE700BF4C
:10240C0000100240BC3E000810B487B01D4C94E88C
:10241C000F000DF1180C0CE90F00238AADF80430F5
:10242C00194B596801F00C03082B28D101F47013D7
:10243C004FF4701292FAA2F2B2FA82F2D3406344D1
:10244C0013F8100C11F4803F05D1104B03FB00F076
:10245C0007B010BC70470C4B5B6803F400334FF4AF
:10246C00003292FAA2F2B2FA82F2D340634413F829
:10247C00142C074BB3FBF2F300FB03F0E8E7044822
:10248C00E6E700BF303C00080010024000093D00A8
:10249C0000127A0070B50D460446C0B1236813F0E3
:1024AC000F0F1AD0022D1ED89D4B1B6803F007038B
:1024BC00AB421ED29A4A136823F007032B431360D6
:1024CC00136803F00703AB4213D0012070BD4FF427
:1024DC002F719448FDF71EFFE0E740F2BD219148B3
:1024EC00FDF718FFDEE740F2BE218E48FDF712FF24
:1024FC00DAE7236813F0020F18D0A3687BB1802BA6
:10250C000DD0902B0BD0A02B09D0B02B07D0C02B0B
:10251C0005D0D02B03D0E02B01D0F02B41D1824A37
:10252C00536823F0F003A1680B435360236813F046
:10253C00010F00F08A806368022B38D86368012B86
:10254C003BD0022B4ED0022292FAA2F2764A1168AC
:10255C00022292FAA2F2B2FA82F202F01F0221FADD
:10256C0002F212F0010F00F0D8806F494A6822F095
:10257C00030213434B60FEF7EDF906466368012B2B
:10258C0045D0022B52D0684B5B6813F00C0F5CD01B
:10259C00FEF7E0F9801B41F288339842F3D903200F
:1025AC0094E740F2D7215F48FDF7B4FEB7E740F25D
:1025BC00DE215C48FDF7AEFEC0E74FF4003292FA24
:1025CC00A2F2594A11684FF4003292FAA2F2B2FA0E
:1025DC0082F202F01F0221FA02F212F0010FC4D1B2
:1025EC00012073E74FF0007292FAA2F24E4A116882
:1025FC004FF0007292FAA2F2B2FA82F202F01F02CB
:10260C0021FA02F212F0010FAFD101205EE7464B26
:10261C005B6803F00C03042B17D0FEF79BF9801BAF
:10262C0041F288339842F2D903204FE73E4B5B6866
:10263C0003F00C03082B08D0FEF78CF9801B41F239
:10264C0088339842F2D9032040E7354B1B6803F0DE
:10265C000703AB420CD9324A136823F007032B4310
:10266C001360136803F00703AB4201D001202DE780
:10267C00236813F0040F14D0E3685BB1B3F5806FDB
:10268C0008D0B3F5A06F05D0B3F5C06F02D0B3F589
:10269C00E06F36D1244A536823F4E063E1680B43BE
:1026AC005360236813F0080F15D023695BB1B3F5A1
:1026BC00806F08D0B3F5A06F05D0B3F5C06F02D012
:1026CC00B3F5E06F23D1184A536823F460532169A2
:1026DC0043EAC1035360FFF797FE134B5B6803F0AB
:1026EC00F003F02292FAA2F2B2FA82F2D3400F4A2D
:1026FC00D35CD8400E4B18600020FEF7FDF800208C
:10270C00E4E640F232310748FDF704FEC2E740F23E
:10271C0039310448FDF7FEFDD5E70120D6E600BFB0
:10272C0000200240BC3E0008001002408C3D000816
:10273C004C000020014B1868704700BF4C00002073
:10274C0008B5FFF7F7FF074B5B6803F4E0634FF442
:10275C00E06292FAA2F2B2FA82F2D340024AD35C5D
:10276C00D84008BD001002409C3D000808B5FFF79A
:10277C00E1FF074B5B6803F460534FF4605292FA2D
:10278C00A2F2B2FA82F2D340024AD35CD84008BD1E
:10279C00001002409C3D0008F0B583B0044603686D
:1027AC0013F0130F2CD0236813F0010F5CD0636867
:1027BC0043B1B3F5807F05D0B3F5007F02D0B3F5FC
:1027CC00407F22D1594BDA6942F08052DA61DB69E1
:1027DC0003F080530193019B554A136843F48073B3
:1027EC001360FEF7B7F80546514B1B6813F4807F56
:1027FC0010D1FEF7AFF8401B6428F5D903205BE03D
:10280C007E214C48FDF786FDCDE784214948FDF734
:10281C0081FDD7E7454B1B6A13F440731DD06268EA
:10282C0002F440729A4218D04048016A21F4407672
:10283C004FF4803393FAA3F2B2FA82F23E4D0127A1
:10284C0045F8227093FAA3F3B3FA83F3002245F808
:10285C002320066211F0010F30D1344A136A23F49D
:10286C00407361680B431362236813F0020F11D09D
:10287C00A36843B1B3F5804F05D0B3F5004F02D038
:10288C00B3F5404F42D1294A536823F44043A16821
:10289C000B435360236813F0100F44D0E368B3F577
:1028AC00800F01D0002B36D1204A536823F48003CB
:1028BC00E1680B435360002003B0F0BDFEF74AF80B
:1028CC00054614E0194B1A6A022393FAA3F3B3FAE0
:1028DC0083F303F01F0322FA03F313F0010FBCD1AF
:1028EC00FEF738F8401B41F28833984219D802237E
:1028FC0093FAA3F293FAA3F3B3FA83F35B0943F0CD
:10290C000203022BDED0094B5A6ADDE7BA210948D3
:10291C00FDF700FDB7E74FF48B710648FDF7FAFCA5
:10292C00C2E70320C8E70020C6E700BF0010024042
:10293C0000700040F43E00080004424270477047AB
:10294C0070477047704710B5044603681A6912F057
:10295C00020F11D0DA6812F0020F0DD06FF00202E4
:10296C001A610123037603689B6913F0030F70D07F
:10297C00FFF7E6FF0023237623681A6912F0040F91
:10298C0012D0DA6812F0040F0ED06FF004021A6144
:10299C000223237623689B6913F4407F5FD0204683
:1029AC00FFF7CEFF0023237623681A6912F0080F75
:1029BC0012D0DA6812F0080F0ED06FF008021A610C
:1029CC00042323762368DB6913F0030F4ED02046D3
:1029DC00FFF7B6FF0023237623681A6912F0100F55
:1029EC0012D0DA6812F0100F0ED06FF010021A61CC
:1029FC00082323762368DB6913F4407F3DD02046FF
:102A0C00FFF79EFF0023237623681A6912F0010F4B
:102A1C0003D0DA6812F0010F36D123681A6912F06C
:102A2C00800F03D0DA6812F0800F34D123681A6952
:102A3C0012F0400F03D0DA6812F0400F32D1236845
:102A4C001A6912F0200F03D0DA6812F0200F30D17F
:102A5C0010BDFFF774FF2046FFF773FF8AE720468F
:102A6C00FFF76DFF2046FFF76CFF9BE72046FFF753
:102A7C0066FF2046FFF765FFACE72046FFF75FFFD8
:102A8C002046FFF75EFFBDE76FF001021A6120469A
:102A9C00FFF754FFC1E76FF080021A61204600F087
:102AAC0010F8C3E76FF040021A612046FFF74AFFA7
:102ABC00C5E76FF020021A61204600F001F8C7E765
:102ACC007047704790F83930DBB2122B01D0322BA3
:102ADC002AD18368B3F5805F16D0036A5A1C026250
:102AEC001A7803685A60C38C013B9BB2C384EBB960
:102AFC000268D36823F08003D3600268D36843F084
:102B0C004003D36000207047036A1B880268C3F33C
:102B1C000803536003691BB9036A02330362E2E7DB
:102B2C00036A01330362DEE702207047002070471E
:102B3C002DE9F843044642687E4B9A4200F290809D
:102B4C00E3681BB1B3F5005F40F09080236933B1AB
:102B5C00B3F5806F03D0B3F5C06F40F08D8063691F
:102B6C0033F00C0200D123B940F255717248FDF7D5
:102B7C00D1FB2268136923F44053E1680B431361C2
:102B8C00A3682269134362691A432168CB6823F452
:102B9C00B05323F00C031343CB602268536923F426
:102BAC004073A1690B4353612268644B9A4269D00C
:102BBC00FFF7C6FD00EB800000EB80006568AD0000
:102BCC00B0FBF5F55E4FA7FB05356D092E01FFF740
:102BDC00B7FD00EB800000EB80006568AD00B0FB3A
:102BEC00F5F9FFF7ADFD00EB800000EB80006568A8
:102BFC00AD00B0FBF5F5A7FB05356D094FF064088A
:102C0C0008FB15952D013235A7FB05356D0905F02F
:102C1C00F0053544FFF794FD00EB800000EB8000DD
:102C2C006668B600B0FBF6F6FFF78AFD00EB800095
:102C3C0000EB800063689B00B0FBF3F0A7FB003057
:102C4C00400908FB10684FEA081808F13208A7FB86
:102C5C000837C7F3431723682F449F60BDE8F883F8
:102C6C0040F252713448FDF755FB69E740F253715D
:102C7C003148FDF74FFB69E740F254712E48FDF7E0
:102C8C0049FB6CE7FFF772FD00EB800000EB800066
:102C9C006568AD00B0FBF5F5294FA7FB05356D094F
:102CAC002E01FFF763FD00EB800000EB80006568F0
:102CBC00AD00B0FBF5F9FFF759FD00EB800000EB20
:102CCC0080006568AD00B0FBF5F5A7FB05356D0917
:102CDC004FF0640808FB15952D013235A7FB05351F
:102CEC006D0905F0F0053544FFF740FD00EB800061
:102CFC0000EB80006668B600B0FBF6F6FFF736FD19
:102D0C0000EB800000EB800063689B00B0FBF3F0ED
:102D1C00A7FB0030400908FB10684FEA081808F1BF
:102D2C003208A7FB0837C7F3431723682F449F606B
:102D3C0094E700BF20AA44002C3F00080038014053
:102D4C001F85EB51002872D010B5044683690BB374
:102D5C000368384A93420CD0A2F57442934208D0CF
:102D6C0002F58062934204D040F207113248FDF71D
:102D7C00D1FAA369FBB1B3F5807F1CD0B3F5007F0A
:102D8C0019D0B3F5407F16D04FF484712A48FDF763
:102D9C00C1FA10E00368274A93420CD0A2F57442A2
:102DAC00934208D002F58062934204D04FF48671AE
:102DBC002148FDF7AFFAA36813B1B3F5805F24D1B6
:102DCC00E36943BB94F839305BB3022384F83930A0
:102DDC002268D36823F40053D3602046FFF7A8FE83
:102DEC002268136923F4904313612268536923F01A
:102DFC002A0353612268D36843F40053D360002044
:102E0C00E063012384F8393010BD4FF487710A4810
:102E1C00FDF780FAD4E740F20F110748FDF77AFA74
:102E2C00D0E784F838302046FDF7B8FBCDE7012019
:102E3C00704700BF003801402C3F000810B590F8D7
:102E4C003940E4B2012C01D0222C38D1002938D0E1
:102E5C00002A38D090F83830012B36D0012380F876
:102E6C00383001628284C2840023C36390F8393005
:102E7C00DBB2222B1FD0122380F8393013460446C4
:102E8C00026B13489062226B1248D062226B12487C
:102E9C00106322680432206BFDF7D0FE23686FF0BC
:102EAC0040021A602268536943F08003536100208A
:102EBC0084F8380004E0322380F83930DEE7022051
:102ECC0010BD0120FCE70120FAE70220F8E700BF63
:102EDC00E92E0008472F00080930000808B5436A9E
:102EEC000268126812F0200F0CD10022DA841968E3
:102EFC004A6922F080024A611A68D36843F04003A1
:102F0C00D36008BD184600F026FEFAE708B5026843
:102F1C00D36823F04003D36090F83930DBB2322B06
:102F2C0006D0012380F8393000F015FE002008BDD2
:102F3C00222380F83930F7E7704708B5406AFFF76D
:102F4C00FBFF08BD08B590F83930DBB2222B01D05D
:102F5C00322B4ED18368B3F5805F29D00369002BE7
:102F6C003AD103685A68836A591C81621A70C38DFE
:102F7C00013B9BB2C385002B3DD10268D36823F083
:102F8C002003D36090F83930DBB2322B2DD002689D
:102F9C00D36823F48073D3600268536923F0010370
:102FAC005361012380F8393000F0D4FD002008BDB6
:102FBC00826A036943B903685B68C3F3080313802F
:102FCC00836A02338362D2E703685B68DBB21380E7
:102FDC00836A01338362CAE703685B68826A511CA7
:102FEC00816203F07F031370C1E7122380F839303C
:102FFC00DAE70220DBE70020D9E7704708B5406A22
:10300C000023C385C384012380F83930C36B43F09C
:10301C001003C363FFF7F1FF08BD10B582B004467F
:10302C0003681968DA6811F0010F06D002F4807297
:10303C001AB1C26B42F00102C26319685A6902F0FC
:10304C00010211F0020F04D01AB1E16B41F004013E
:10305C00E163196811F0040F04D01AB1E16B41F06F
:10306C000201E163196811F0080F04D01AB1E26B88
:10307C0042F00802E2631A68DB6803F0200312F0E6
:10308C00200F00D0ABB923681A68DB6803F080030B
:10309C0012F0800F00D083B923681A68DB6803F044
:1030AC00400312F0400F00D05BB9E36B6BB902B078
:1030BC0010BD2046FFF746FFE5E72046FFF702FD6F
:1030CC00EAE72046FFF722FFEFE723681A68019230
:1030DC005B680193019B012384F839302046FFF78C
:1030EC008CFFE4E7014B1860704700BFDC04002044
:1030FC00014B5860704700BFDC040020014B986006
:10310C00704700BFDC040020014BD860704700BF43
:10311C00DC04002010B50446032806D80549064BEC
:10312C0053F82400FDF702FF10BD23210348FDF7DF
:10313C00F1F8F3E7DC0400208C3F0008643F000842
:10314C0070B504460D461646032807D8F2B2294638
:10315C00054B53F82400FEF789F870BD282103486D
:10316C00FDF7D8F8F2E700BF8C3F0008643F000879
:10317C0038B504460D46032806D82946054B53F8A6
:10318C002400FEF75FF838BD2D210348FDF7C2F887
:10319C00F3E700BF8C3F0008643F000838B50446D5
:1031AC000D46012803D92B210348FDF7B3F8034B37
:1031BC0053F824305D6038BD9C3F0008C43F0008C4
:1031CC0008B5054B53F82000FEF78CFA08B900201F
:1031DC0008BD0120FCE700BFC43F000800B583B068
:1031EC000A23009313460A4641000548FEF73EFBAE
:1031FC0018B9002003B05DF804FB4FF0FF30F9E77D
:10320C005000002000B583B00A23009313460A46F1
:10321C0041000548FEF7C2FB18B9002003B05DF869
:10322C0004FB4FF0FF30F9E750000020014B5860D1
:10323C00704700BFC8000020014B9860704700BF6A
:10324C00C800002008B50548FEF7BEFC08B10120F7
:10325C0008BD0248FEF708FD0020F9E7C800002071
:10326C0008B50248FEF715FD08BD00BFC8000020D8
:10327C0008B50248FFF767FB08BD00BFD800002067
:10328C0008B50248FFF75FFB08BD00BFD80000205F
:10329C0038B504460D46022804D8054B53F82430A3
:1032AC005D6038BD38210348FDF734F8F5E700BF01
:1032BC00F83F0008CC3F000808B5054B53F8200038
:1032CC00FFF740FD08B9002008BD0120FCE700BF56
:1032DC00F83F000808B50A4601460448FFF7AEFD62
:1032EC0008B9002008BD4FF0FF30FBE75401002067
:1032FC000FB400B583B004A951F8040B019100F090
:10330C00B7F803B05DF804EB04B0704738B5054668
:10331C000B4B1C6802E0012000F006FC094B1B78EB
:10332C0023B96319064A12689342F4D82C44044B0F
:10333C001B689C4201D9002038BD0120FCE700BF6E
:10334C00F4080020D401002008B56420FFF7DEFF4C
:10335C0098B90A4B1B686BB1084A591C11600A21B9
:10336C00197007481168091A89B2FFF7B3FF054BAA
:10337C0000221A70014B024A1A6008BDEC080020AA
:10338C00EC040020D40100200FB430B583B006AC9F
:10339C0054F8045B6420FFF7B9FF019421462846DA
:1033AC0000F066F8074B1B68074A9B1AB3F5617F60
:1033BC0004DC03B0BDE8304004B07047FFF7C4FF35
:1033CC00F7E700BFEC080020EC04002008B42DE95E
:1033DC00F04183B080460E46174609AC54F8045BA6
:1033EC006420FFF793FF43463A4631460848FFF7FF
:1033FC007FFF01942146284600F03AF80548FFF774
:10340C0077FFFFF7A1FF03B0BDE8F04101B07047B3
:10341C000440000814400008014B01221A70704748
:10342C00D401002010B504460A2807D0094B1B68AC
:10343C0043B1591C074A11601C7010BD0D20FFF7D9
:10344C00F1FFF3E7044B1B68002BF6D0204698479E
:10345C00F3E700BFEC080020F008002010B504468C
:10346C0002E00134FFF7DEFF20780028F9D110BD0F
:10347C002DE9F04786B00646019102E0FFF7D2FF36
:10348C002646741C3078002800F0EC802528F5D1F5
:10349C00B21C7078302804D02D2806D000250024CA
:1034AC000FE0F21CB0780125F9E7F21CB078022588
:1034BC00F5E704EB840463001844A0F130041078A1
:1034CC000132A0F13003DBB2092BF2D96C2803D006
:1034DC004C2801D0164603E045F00405561C107824
:1034EC00002800F0BF80602814D9A0F12003DBB2C3
:1034FC00A3F14202162A41D8DFE802F043333A40E6
:10350C00404040404040404040464040400E403AE1
:10351C0040403D000346EBE7019B1A1D0192D3F896
:10352C000090002700E0013719F80730002BFAD182
:10353C0003E02020FFF776FF474615F0020F04D179
:10354C0007F10108A742F4D347464846FFF786FF28
:10355C0003E02020FFF766FF2F467D1CA742F8D31F
:10356C008FE7019B1A1D01921878FFF75BFF88E724
:10357C004FF00A0E0AE04FF0100E07E0FFF752FF73
:10358C007FE74FF0020E01E04FF0080E15F0040F2C
:10359C0008D0019A111D01911168442B0ED04FF0E7
:1035AC00000C20E0442B04D0019A111D01911168EC
:1035BC00F3E7019A111D01911168EEE70029EEDA8B
:1035CC00494245F00805EAE727273B44DBB20CF1FA
:1035DC00010730330DF11808E04408F8103C72B1C3
:1035EC000F2F0CD8BC46B1FBFEF20EFB1213DBB254
:1035FC001146092BEBD97828E6D00727E5E715F01B
:10360C00080F06D006AB1F442D2307F8103C0CF115
:10361C00020715F0010F03D04FF0300AB84606E050
:10362C004FF0200AFAE75046FFF7FCFEC84615F0AB
:10363C00020F04D108F10109A045F4D3C846013F9B
:10364C0006AB3B4413F8100CFFF7ECFE002FF6D141
:10365C0003E02020FFF7E6FEA84608F10105A0458F
:10366C00F7D30EE706B0BDE8F087000070B584B064
:10367C0005460E461446FFF7B1FD10B9002004B004
:10368C0070BD3378029301940095034B1B220349C0
:10369C000348FFF79BFEF1E7504000088C40000800
:1036AC008840000870B584B005460E461446FFF7F6
:1036BC00A9FD10B9002004B070BD337802930194B9
:1036CC000095034B272203490348FFF77FFEF1E7E0
:1036DC0018400008984000088840000810B50024E5
:1036EC00052C0ADC04EB440253000C48184400F08F
:1036FC0037F8034680B90134F2E70024052C0ADCC4
:10370C0004EB440253000548184400F03DF803460E
:10371C0010B90134F2E70023184610BD2800002030
:10372C0010B5002407E004EB44025300034818448E
:10373C0000F032F80134052CF5DD10BD2800002016
:10374C0008B506490020FFF729FD0020FFF738FDDA
:10375C00034608B9184608BD0123FBE7A086010003
:10376C0000B583B090F90130427943EAC2138DF869
:10377C00043083788DF80530022201A90078FFF718
:10378C0075FF03B05DF804FB08B50222C11C00787C
:10379C00FFF788FF08BD000010B582B00446017821
:1037AC000E48FFF7F1FD637983B1012B12D094F928
:1037BC000110637941EAC311A278E3782079009073
:1037CC00C9B20748FFF7E0FD02B010BD0548FFF78E
:1037DC00DBFDECE70448FFF7D7FDE8E7A84000085D
:1037EC00C4400008B4400008BC40000800207047EA
:1037FC0000B595B009230A934FF480330B93002244
:10380C000C92012210920222119212934FF4E013A7
:10381C0013930AA8FEF764FA48BB0F230593022101
:10382C000691002307934FF480620892099305A830
:10383C00FEF730FE30BB022301934FF40043039399
:10384C0001A8FEF7A9FF30BBFEF774FF4FF47A73A3
:10385C00B0FBF3F0FDF70CF90420FDF71FF9002283
:10386C0011464FF0FF30FDF7A7F8002007E00E4B94
:10387C0040F215120D490E48FFF7A8FD012015B0B6
:10388C005DF804FB0B4B4FF4907208490848FFF7A6
:10389C009DFD0120F3E7084B40F227120349044831
:1038AC00FFF794FD0120EAE7E440000864410008BA
:1038BC0088400008F44000080841000800B585B0B5
:1038CC00224B9A6942F004029A619A6902F004024E
:1038DC000092009A9A6942F008029A619A6902F081
:1038EC0008020192019A9A6942F010029A619A694F
:1038FC0002F010020292029A9A6942F020029A6136
:10390C009B6903F020030393039B4FF40050FFF7D4
:10391C00E9FB0020FFF7ECFB0020FFF7EFFB022098
:10392C00FFF7F8FB2020FFF7DDFB0120FFF7E0FBA2
:10393C000220FFF7E9FB0020FFF7ECFB002220211F
:10394C001046FFF7FDFB05B05DF804FB00100240CC
:10395C0010B5FCF7E5FF10B10124204610BDFFF7B0
:10396C0047FF08B10124F8E74FF4E1310120FFF7DC
:10397C008FFC0120FFF7A0FCFFF7E6FCFFF7E0FE51
:10398C0004460028E9D1FFF799FFFCF775FC0D4BB5
:10399C00F6220D490D48FFF719FD0220FFF746FCF2
:1039AC00FA20FFF749FCFFF74DFC044610B9FCF771
:1039BC0063FCD2E7064BFB2203490648FFF706FDE2
:1039CC00CBE700BF244100085C41000834410008EB
:1039DC00384100088840000808B5FCF753FC08BDC6
:1039EC0008B5FFF77BFE08BD2DE9F04182B0FFF76B
:1039FC00AFFFB0B90A20FFF7F9FE0746E0B93E4B1E
:103A0C0000221A603D4B4C223D493E48FFF7DEFC3C
:103A1C003D48FFF7B9FCFFF797FC3C463D460126B5
:103A2C004DE00090394B3D2235493948FFF7CEFC2B
:103A3C006420FFF76BFC5BE00090364B442230496E
:103A4C003348FFF7C3FC6420FFF760FC50E001250E
:103A5C004FF400510220FFF78BFB01283ED0FFF7FB
:103A6C00BBFFDFF89480D8F800302B48FFF78CFCB4
:103A7C00D8F800100095C4F1640322462748FFF7DC
:103A8C0083FCFFF74DFEFFF75FFC1B4B1968244BC3
:103A9C00A3FB0123DB0803EB83035A008B1A042BD3
:103AAC00F3D1FFF79DFFE0B9134B19681C4BA3FB37
:103ABC000123DB0803EB83035A009142F4D1FFF797
:103ACC00CFFB4FF400510220FFF752FB0028BFD16F
:103ADC00002EBCD0013401250026B9E73D46012655
:103AEC00BDE700900F4B8D2205490948FFF76EFC8E
:103AFC00012002B0BDE8F081F4080020A4410008C8
:103B0C005441000834410008B041000874410008D9
:103B1C008840000888410008B4410008BC410008F6
:103B2C00CDCCCCCCD041000810B582B00446084BAB
:103B3C001B68019301E0FFF793FB019B2344044AAC
:103B4C0012689342F7D8FFF78BFB02B010BD00BF91
:103B5C00F4080020704708B5FFF75EFC08BD0000B4
:103B6C00002103E00B4B5B58435004310A480B4BCC
:103B7C0042189A42F6D30A4A02E0002342F8043B68
:103B8C00084B9A42F9D3FCF791FE00F00FF8FFF7BF
:103B9C002BFF7047F441000800000020D8010020E2
:103BAC00D8010020F8080020FEE7000070B50025C1
:103BBC000C4E0D4CA41BA410A54209D100F026F804
:103BCC0000250A4E0A4CA41BA410A54205D170BDB9
:103BDC0056F8253098470135EEE756F825309847CA
:103BEC000135F2E7EC410008EC410008EC4100081B
:103BFC00F041000810B5431E0A44914200D110BD9B
:103C0C0011F8014B03F8014FF7E70000F8B500BFBE
:103C1C00F8BC08BC9E467047F8B500BFF8BC08BCA1
:043C2C009E467047F9
:103C300002030405060708090A0B0C0D0E0F1010ED
:103C4000010200000A2564000000000014000000CA
:103C5000ECFFFFFF6C6566742061646A7573740025
:103C6000000000002500000000000000000000002F
:103C700014000000ECFFFFFF726967687420616444
:103C80006A75737400000000250000000000000049
:103C900032000000C8000000000000007374656579
:103CA00072696E672074696D650000002A31306D9D
:103CB000730000000A000000E7030000010000009C
:103CC00072632074696D656F7574000000000000F8
:103CD0007300000000000000040000000600000067
:103CE00002000000726320636E7472207468657253
:103CF000657300002F313600000000000400000052
:103D00000600000002000000726320636E747220DF
:103D100074686572657300002F3136000000000082
:103D2000040000000600000002000000726320632F
:103D30006E74722074686572657300002F313600EE
:103D40000000000004000000060000000200000067
:103D5000726320636E74722074686572657300000C
:103D60002F313600000000000400000006000000B3
:103D700002000000726320636E74722074686572C2
:103D8000657300002F3136000000000000000000C5
:103D900000000000010203040607080900000000FB
:103DA00001020304447269766572732F53544D33D4
:103DB00032463178785F48414C5F4472697665726B
:103DC0002F5372632F73746D3332663178785F6866
:103DD000616C5F636F727465782E630044726976FC
:103DE0006572732F53544D3332463178785F4841B2
:103DF0004C5F4472697665722F5372632F73746DD2
:103E00003332663178785F68616C5F646D612E6310
:103E100000000000447269766572732F53544D336D
:103E200032463178785F48414C5F447269766572FA
:103E30002F5372632F73746D3332663178785F68F5
:103E4000616C5F6770696F2E630000004472697671
:103E50006572732F53544D3332463178785F484141
:103E60004C5F4472697665722F5372632F73746D61
:103E70003332663178785F68616C5F6932632E63D4
:103E800000000000447269766572732F53544D33FD
:103E900032463178785F48414C5F4472697665728A
:103EA0002F5372632F73746D3332663178785F6885
:103EB000616C5F697764672E630000004472697605
:103EC0006572732F53544D3332463178785F4841D1
:103ED0004C5F4472697665722F5372632F73746DF1
:103EE0003332663178785F68616C5F7263632E632A
:103EF00000000000447269766572732F53544D338D
:103F000032463178785F48414C5F44726976657219
:103F10002F5372632F73746D3332663178785F6814
:103F2000616C5F7263635F65782E630044726976CB
:103F30006572732F53544D3332463178785F484160
:103F40004C5F4472697665722F5372632F73746D80
:103F50003332663178785F68616C5F756172742E98
:103F600063000000447269766572732F6D69646442
:103F70006C654C61796572732F4750494F2F5372AE
:103F8000632F4D575F4750494F2E63000008014093
:103F9000000C014000100140001401404472697699
:103FA0006572732F6D6964646C654C6179657273B9
:103FB0002F4932432F5372632F4D575F4932432E9F
:103FC00063000000500000208C00002044726976DD
:103FD0006572732F6D6964646C654C617965727389
:103FE0002F554152542F5372632F4D575F555341F4
:103FF00052542E63000000001401002054010020E0
:1040000094010020252D31307320252D3364202587
:104010002D3873000A000000493243312072656375
:1040200065697665206661696C64200A2061646454
:10403000723A5B25785D2C73697A653A5B25645D1D
:104040002C646174613A5B3078253032785D000011
:1040500049324331207472616E73206661696C6409
:10406000200A20616464723A5B25785D2C73697A5A
:10407000653A5B25645D2C646174613A5B30782538
:104080003032785D000000006572720044445F4980
:1040900032433153656E640044445F4932433152C8
:1040A00065636569766500004D44282530327829BE
:1040B0003A5B00005354414E44425900494E5F4719
:1040C000414D45005D2C5B253038625D5B25303805
:1040D000625D2C5B253038625D5B253038625D0A9D
:1040E000000000006F7363436F6E66696746616925
:1040F0006C640000636C6F636B436F6E6669674648
:1041000061696C640000000048414C5F52434345C4
:10411000785F506572697068434C4B436F6E666997
:10412000670000004957444720696E697469616CF3
:10413000697A65006D7367004957444720696E6965
:104140007469616C697A65206661696C6564210ACD
:10415000000000006D61696E0000000053595F6946
:104160006E69740053595F636C6F636B496E697459
:1041700000000000696E697469616C697A652046A7
:1041800061696C6425640000493243436F6E6E655B
:104190006374696F6E54657374204661696C64253D
:1041A00064000000737461727421210A0000000031
:1041B0001B5B324A1B5B313B31480000666C7573F8
:1041C000682025642025642025642025640A0000D9
:1041D000446576696365204472697665722054612E
:0C41E000736B73204661696C64256400F9
:0441EC003101000895
:0441F0000D010008B5
:1041F4000100000020020020FC01002044020020F5
:10420400680200208C020020B0020020D4020020AA
:10421400F80200201C03002011000000000012001E
:104224000000000013000000000014000000000063
:1042340016000000000018000000000000A24A045C
:1042440000540040A08601000000000000000000AF
:10425400004000000000000000000000000000001A
:10426400000000000000000000000000000000004A
:1042740000000000000000000000000000580040A2
:10428400A0860100000000000000000000400000C3
:10429400000000000000000000000000000000001A
:1042A400000000000000000000000000000000000A
:1042B400000000000000000000300040000000008A
:1042C400FF0F000000000000002C0140000000006F
:1042D40000000000000000000000000000000000DA
:1042E40000000000000000000000000000000000CA
:1042F40000000000000000000000000000000000BA
:10430400000000000038014000C20100000000006D
:1043140000000000000000000C000000000000008D
:104324000000000000000000000000000000000089
:104334000000000000000000000000000000000079
:10434400000000000044004000C201000000000022
:1043540000000000000000000C000000000000004D
:104364000000000000000000000000000000000049
:104374000000000000000000000000000000000039
:1043840000000000004800408025000000000000FC
:1043940000000000000000000C000000000000000D
:1043A4000000000000000000000000000000000009
:1043B40000000000000000000000000000000000F9
:0843C4000000000001000000F0
:0400000508003B6D47
:00000001FF
